:020000040000FA
:0402FC00FFFFFFFF02
:020000040000FA
:1040000050D80720D9410000DD410000DF41000009
:10401000E1410000E3410000E54100000000000034
:10402000000000000000000000000000E741000068
:10403000E941000000000000EB4100004FAC00002F
:10404000EF410000EF410000EF410000EF410000B0
:10405000EF410000759B0000CB9A0000EF4100008B
:104060001F9C0000EF410000EF410000EF41000005
:10407000EF410000EF410000EF410000EF41000080
:10408000EF410000318B0000F74A0000174B0000A1
:10409000374B0000574B0000EF41000079AC0000A7
:1040A000EF410000EF410000EF410000EF41000050
:1040B000EF410000EF410000EF410000EF41000040
:1040C000EF410000EF410000EF41000000F002F876
:1040D00000F074F80AA090E8000C82448344AAF12E
:1040E0000107DA4501D100F069F8AFF2090EBAE82C
:1040F0000F0013F0010F18BFFB1A43F0010318471C
:1041000030F4010060F4010010F8013B0A4413F0A0
:10411000030408BF10F8014B1D1108BF10F8015B24
:10412000641E05D010F8016B641E01F8016BF9D113
:10413000002D15D010F8014B03F00C030C2BA1EB54
:1041400004040ABF10F8013BA4EB8314A4EB03247E
:1041500005F1010314F8016B5B1E01F8016BF9D541
:10416000914238BF10F8013BD1D37047002300249F
:1041700000250026103A28BF78C1FBD8520728BF77
:1041800030C148BF0B60704764290CF091856329EA
:104190000DF0AD8073290DF0B280002070471FB57F
:1041A000AFF300800DF020FA0400002000210EF093
:1041B000BBFB401C60601FBD10B510BD0DF0EEF9DB
:1041C0001146FFF7ECFF08F04EFD0DF023FAFFF764
:1041D000F3FF0DF065FA000008480047FEE7FEE730
:1041E000FEE7FEE7FEE7FEE7FEE7FEE7FEE7FEE7A7
:1041F00003480449024A044B70470000CD400000C8
:1042000050D6072050D8072050D60720774800689E
:10421000C0F30160032860D174488430006810F056
:10422000030006D0012820D0022839D0032853D11A
:1042300000E000BF6D480068C0F30E00401C410064
:104240006B48414369488838D0F88800C0F307407C
:10425000401CB1FBF0F165487C300068C0B2401CE6
:10426000B1FBF0F06349086036E060480068C0F3D5
:104270000E00401C4100604841435C488838D0F83B
:104280008800C0F30740401CB1FBF0F157487C3078
:104290000068C0B2401CB1FBF0F0564908601BE05A
:1042A00052480068C0F30E00401C41004FF4FA4031
:1042B00041434E488838D0F88800C0F30740401C7E
:1042C000B1FBF0F149487C300068C0B2401CB1FB42
:1042D000F0F04849086000BF30E04448843000688E
:1042E00010F0030006D0012810D0022819D00328AE
:1042F00023D100E000BF3D487C300068C0B2401CC4
:104300003B49B1FBF0F03B49086016E037487C3090
:104310000068C0B2401C3849B1FBF0F03549086074
:104320000BE032487C300068C0B2401C4FF4FA41C8
:10433000B1FBF0F02F49086000BF00BF70470020BC
:104340002E49086000BF032028497C310860002006
:1043500026498839C1F80C0129482449091F0860F9
:10436000AA202249091D08605520086001201F4924
:1043700008390860AA201D49091D086055201B49FD
:104380008839C1F88C0000BF1848006810F0806FB1
:10439000FAD00320154908390860AA201349883942
:1043A000C1F88C0055201149091D086000BF0F4855
:1043B000006810F0407FFAD000200C49803108607E
:1043C0000A498839C1F8A8010C490C3108600D4828
:1043D00006493C310860002008492831086043F252
:1043E0003A000249883908607047000088C00F40D1
:1043F00000093D0000C00720001BB700A0C10F400E
:10440000630005001A9300026D4A1268C2F381111D
:1044100031B1012908D0022909D003290FD10AE0BE
:10442000684A126890080AE0664A106807E0654A20
:104430001268500803E0634A1268D00800BF00BF4A
:10444000704710B55E48E438006840F480505E491B
:10445000C1F8C400FFF7D8FF04465C48B4FBF0F095
:10446000401E040244F400105949086010BD70B5A4
:104470000546082D24D2574A02EB45025178554A89
:1044800012F8150000F07EFB5148006820F0FF0094
:104490000121A94008434E4908600A2000F082FA31
:1044A0004B48006840F080704949086000BF4848A8
:1044B0004068C00FFBD046484068C0F30B1400E0D2
:1044C0000024204670BD00B587B00020FFF7CFFF65
:1044D00041490860084600680EF060FECDE904011D
:1044E0003EA00CC804980EF0ADFECDE902013DA03F
:1044F0000CC802980EF0CCFBCDE900010EF02AFAB0
:104500003A490860084600680FF0D8FACDE904017E
:1045100037A00CC804980EF095FECDE902012FA03B
:104520000CC802980EF0B4FBCDE900010EF012FAAF
:10453000314908601E2000F042FA0120FFF797FF82
:104540002E490860084600680EF028FECDE90401F7
:1045500022A00CC804980EF075FECDE9020121A03E
:104560000CC802980EF094FBCDE900010EF0F2F9B0
:1045700023490860084600680FF0A0FACDE904015D
:1045800020A00CC804980EF05DFECDE9020113A036
:104590000CC802980EF07CFBCDE900010EF0DAF9B0
:1045A0001A49086002221A491348006800F003F90A
:1045B000022218491548006800F0FDF807B000BD58
:1045C000A8C10F4000C0072000C00F4040420F00AC
:1045D000004003403E44010004C007206666666652
:1045E00066660A400000000000FEAF400CC00720D5
:1045F0007B14AE47E13A354014C0072008C00720BD
:1046000010C0072052B81E85EB71434018C0072028
:104610001CC0072022C0072030B500224C1E05E038
:10462000835C055D85540355521C641EA242F7DB72
:1046300030BDF0B504460D46174600260CE00A20B2
:1046400094FBF0F100FB11403030C2B23046761CD2
:104650002A540A2094FBF0F4002CF0D103E030221D
:104660003046761C2A54BE42F9DB31462846FFF715
:10467000D3FF0020A8553046F0BD2DE9F0478AB0A1
:1046800004460D46164620460FF0EEFB814648468E
:104690000FF04EFC824621460FF078FD07460222BD
:1046A00029464846FFF7C5FF8046002E2FD02E2012
:1046B00005F8080030460EF071FD0B460246CDE9C4
:1046C0000801B2A003C80DF017FCCDE90601384679
:1046D0000FF0F4F9CDE90401DDE906230EF0B2FD97
:1046E000CDE90201ABA00CC802980EF07DF9CDE92E
:1046F00000010EF02FF9074638460FF0B5FB824651
:1047000005EB0800411C32465046FFF792FF0AB005
:10471000BDE8F0870146002011E00A78302A08DB66
:104720000A78392A05DC00EB800250000A78303A1A
:104730001044491C0A782E2A01D100220A700A78F6
:10474000002AEAD170472DE9F047044600274FF0D0
:104750007E5820782D2802D1641CDFF84082002585
:1047600020E020782E2801D101251AE02078A0F140
:104770003006002E14DB092E12DC25B18849404694
:104780000FF050FA804630460FF0D2FB8146844944
:1047900038460FF01BFC824649460FF0B7F9074632
:1047A00000BF641C20780028DBD1414638460FF05A
:1047B0000DFCBDE8F0872DE9F74F84B0044615469F
:1047C00020460FF051FB06460027B8460020039014
:1047D0004FF001090290002120460FF0C7FB0BD2D9
:1047E0006E4920460FF0F2FB04462D20039A0599EE
:1047F00088540398401C0390002120460FF004FBCE
:1048000005D04FF07E5120460FF0B0FB06D230218C
:10481000059A039811540398401C039004E00A2061
:1048200096FBF0F608F10108002EF8D137E0B8F158
:10483000010F02D14FF001090CE00220029006E0C6
:1048400009EB89004FEA40090298401C0290029847
:104850004045F5DD48460FF06BFB82460146204699
:104860000FF0E0F9074638460FF0FEFA00FB09FBAF
:1048700058460FF05DFB824621460FF087FC044648
:1048800038460FF0F1FA3030C2B2059903980A5455
:104890000398401C0390A8F101084FF00109B8F1FA
:1048A000000FC4D12E20039A059988540398401C08
:1048B00003904FF000080120029006E009EB890008
:1048C0004FEA40090298401C02900298A842F5DD88
:1048D00048460FF02DFB019020460FF0C5FA0090DE
:1048E0000FF026FB834621460FF050FC82460199CB
:1048F0000FF06CFB07463C4620460FF0B5FA064623
:1049000000274FF00109A84636E0B8F1010F02D1A7
:104910004FF001090CE00220029006E009EB89004B
:104920004FEA40090298401C029002984045F5DD8C
:1049300048460FF0FDFA8246014620460FF072F914
:10494000074638460FF090FA00FB09FB58460FF077
:10495000EFFA824621460FF019FC044638460FF064
:1049600083FA3030039A059988540398401C0390C9
:10497000A8F101084FF00109B8F1000FC5D10020DE
:10498000039A0599885407B0BDE8F08F0000000035
:1049900000002440000000000000E03F000080BF55
:1049A000000020410022002100BF05E0002100E0BE
:1049B000491C0629FCD3521C8242F7D3704730B5FC
:1049C0000546002404E04FF47A70FFF7EBFF641C07
:1049D000AC42F8D330BD30B50546002404E04FF4B6
:1049E0007A70FFF7ECFF641CAC42F8D330BD0000D6
:1049F00070B504460D461646042C6BDA5E4901EB91
:104A0000C4014879012100F0BDF85B4901EBC40104
:104A100091F9040000F01F020121914042094FF07A
:104A2000E02303EB8202C2F8001100BF524840F8B5
:104A3000345036B1012E16D0022E26D0032E48D186
:104A400035E04E4801680120A04081434C48C0F841
:104A500048114A48001D01680120A0408143484890
:104A6000C0F84C1135E0454801680120A040814361
:104A70004348C0F848114148001D01680120A0408A
:104A800001433F48C0F84C1123E03C480168012035
:104A9000A04001433A48C0F848113848001D00685A
:104AA0000121A14088433649C1F84C0111E0334847
:104AB00001680120A04001433148C0F848112F4847
:104AC000001D01680120A04001432D48C0F84C1191
:104AD00000BF00BF70BD10B50446042C0ADA264999
:104AE00001EBC4014879002100F04CF80020224974
:104AF00041F8340010BD10B520480838006840F077
:104B000001001F49C1F840011B48006810B11A4953
:104B10000868804710BD10B518480838006840F094
:104B200002001749C1F840011348806810B11249CA
:104B30008868804710BD10B510480838006840F0FC
:104B400004000F49C1F840010B48006910B10A493F
:104B50000869804710BD10B508480838006840F063
:104B600008000749C1F840010348806910B10249B3
:104B70008869804710BD000028C0072048C10F4049
:104B800000C00F4030B5A0281BDA032919D8431103
:104B900000F01F005B00102804DB5C1CE3B2A0F1F6
:104BA0001004E0B24406200E474C04EB83020325B8
:104BB00085401468AC43146001FA00F514682C4376
:104BC000146030BD30B5A02811DA421100F01F008A
:104BD0003E4C04EB421329B11C68012585402C434F
:104BE0001C6004E01D6801248440A5431D6030BDA5
:104BF00030B5A02811DA421100F01F00334C04EB4D
:104C0000421329B19C69012585402C439C6104E035
:104C1000DD69012484402543DD6130BD10B5A02845
:104C20000ADA411100F01F00284B03EB41125469CE
:104C3000012383405C40546110BD30B50146002023
:104C4000A0290EDA4A1101F01F01204C04EB421397
:104C50005D6901248C40254201D0012400E000243C
:104C6000E0B230BDF0B50B464400174D4035194653
:104C7000102B01D3103B641C55F824604FEA430C01
:104C8000032707FA0CF7BE4345F8246055F8246063
:104C90005F0002FA07F73E4345F82460F0BD30B5E7
:104CA000094B6833012A07D153F8204001258D4074
:104CB0002C4343F8204006E053F8204001258D4066
:104CC000AC4343F8204030BD00C0024000C0092082
:104CD000FE480068401CFD490860FD480068401C13
:104CE000FB49086070471CB5002004F092FA0446A6
:104CF0000EF0E4FECDE90001F6480CC800980DF076
:104D000073FEF54A03C2F44803C80DF023FE0446BF
:104D10000222F249FFF7B1FCEF4803C80DF01AFE7A
:104D200004460146002004F06EFAEB49ECA205CAE5
:104D300005C11CBD1FB5E54800680EF045FACDE978
:104D40000201E9A00CC802980EF07CFACDE900013E
:104D5000E7480CC800980DF047FEE54A03C2DD495C
:104D6000083A05CA05C1E24803C80DF0F3FD044640
:104D70000222E049FFF781FCFFF7B5FF0020D3498D
:104D80000860DB48D6A206CA06C00020D0490860E9
:104D9000D948D3A206CA06C01FBD1CB5012004F025
:104DA00038FA04460EF08AFECDE90001C9480CC865
:104DB00000980DF019FED14A03C2D04803C80DF087
:104DC000C9FD04460146012004F01DFACB48C4A2E7
:104DD00006CA06C01CBD10B588B0684604F0D6F8F7
:104DE000029808280FD1019815280CD1BA48BCA206
:104DF00006CA06C0083803C80DF0ACFD04460146DB
:104E0000002004F000FA08B010BD10B588B0684664
:104E100004F0BCF8022004F0FCF904464FF07E5187
:104E20000EF0F2FF1FD1029808281CD30198152814
:104E300019D3A948AAA206CA06C0083803C80DF0AB
:104E400089FD04460146002004F0DDF9A24803C8AC
:104E50000DF080FD04460146022004F0D4F9002143
:104E6000022004F0D0F908B010BD2DE9F04104464D
:104E700000275EE0A24800682044B84209D800201C
:104E8000A04908709E49086002209F490870BDE84B
:104E9000F0819D480078042809D100209B490870C2
:104EA000881E0021017041700020974908709848C1
:104EB0000CF075F80646002E37D00120FFF77FFD75
:104EC0007F1C93480CF06BF8B0422ED1002527E0F0
:104ED00001228E49491E481E0CF0C6F88C48405DE0
:104EE0008A49891E487002228AA18848801E0CF0D7
:104EF00010F898B985480078401CC1B28348017009
:104F000080480078801C814208D100207D490870CB
:104F10007B49086001207C490870B8E7681C85B2AD
:104F2000B542D5D30020794908700120FFF747FD2D
:104F30007F1C9FE710B5044604207349087000BF2A
:104F40002046FFF792FF704800780028F8D010BD87
:104F500010B59F216E480CF0C4F800206E4908601F
:104F600010BD70B504460D46FFF7F2FFC820FFF7ED
:104F700026FD2846FFF7DEFF63480078022806D0AA
:104F8000214663480BF08EFF08B1012070BD002060
:104F9000FCE770B504460D461646FFF7D9FF14200E
:104FA000FFF70DFD3046FFF7C5FF57480078022890
:104FB00004D0214656480BF075FF20B929465448C5
:104FC0000BF070FF08B1012070BD0020FCE770B548
:104FD00004460D4616462146012004F06BFB0D21C8
:104FE000012004F056FB31462846FFF7BAFF70BD9A
:104FF00010B56420FFF7E3FC48A1012004F05AFB40
:105000004FF47A7148A0FFF7ACFF10BD10B547A16F
:10501000012004F04FFB40F6B83143A0FFF7A1FF99
:105020000446C820FFF7CBFC1CB101213520FFF757
:10503000DFFD10BD10B503F025FD3FA1012004F0F8
:1050400039FB404938A0FFF78CFF10BD10B53EA1D9
:10505000012004F02FFB40F6B83133A0FFF781FFA9
:1050600010BD2DE9F04704460D4616460027B84608
:105070003A2120460BF00CFF00F1020908E0384607
:10508000791CCFB219F800002C2801D1701EC6B2CD
:105090001EB119F807000D28F1D109E03846791C36
:1050A000CFB219F800204046411C01F0FF082A54F5
:1050B00019F807002C2803D019F807000D28EDD1A6
:1050C000002005F80800BDE8F0870000D8C00720E0
:1050D000DCC00720C8C00720C0C007207DC0072053
:1050E0000000000000000000000000000000D03FB1
:1050F000B0C007206DC00720B8C00720D0C007206F
:1051000094C0072090C007200CC10720FBC00720D7
:1051100072CE07200D0A000020C1072041542B51F8
:10512000504F57443D300D004F4B000041542B5120
:1051300053434C4B3D310D0041542B514941435495
:105140003D310D00C0D4010041542B51475053450F
:105150004E440D002DE9F04F87B004460020069024
:10516000059003A800210A4606C0002002901021E5
:10517000FF480BF0B6FF1021FE480BF0B2FF0821EC
:10518000FD480BF0AEFF0222FC492046FFF769FF05
:105190000222FA4906A80BF0EDFF0222F749891C0A
:1051A00005A80BF0E7FF0422F449491D03A80BF002
:1051B000E1FF03A8FFF7AEFA00900EF0B9FE8346B8
:1051C000EF490EF02FFD814605A8FFF7A3FA8346AD
:1051D0000EF0AEFE824649460EF098FC8046E94944
:1051E0000EF020FD064606A8FFF794FA80460EF062
:1051F0009FFE074631460EF089FC01900322DF49ED
:105200002046FFF72EFFDD480078532804D1DE4901
:1052100001980EF0DBFE01900422D8492046FFF7EA
:1052200020FF0322D54906A80BF0A4FF0222D34990
:10523000C91C05A80BF09EFF0422D049891D03A8B4
:105240000BF098FF03A8FFF765FA00900EF070FED0
:105250008346CB490EF0E6FC814605A8FFF75AFAD3
:1052600083460EF065FE824649460EF04FFC8046AE
:10527000C4490EF0D7FC064606A8FFF74BFA804655
:105280000EF056FE074631460EF040FC054605225C
:10529000BA492046FFF7E5FEB8480078572804D100
:1052A000B94928460EF092FE05460622B34920462B
:1052B000FFF7D7FEB14902A80BF006FE02A8FFF7E0
:1052C00029FAB24908600722AC492046FFF7C9FE17
:1052D0000222AA49AE480BF04DFF0922A7492046F9
:1052E000FFF7BFFE0722A549A3480BF043FF0422A6
:1052F0009F490198FFF75FFA04229E492846FFF76D
:105300005AFA07B0BDE8F08F10B502F0D0FF0020C8
:1053100002F0BDFF9FA003F060F9A1A1012004F0FD
:10532000C9F940F6B831AFF20020FFF71AFE40F697
:10533000B830FFF744FB052419E003F0A3FB9EA15E
:10534000012004F0B7F940F6B831A0A0FFF709FE3C
:1053500038B1A148FFF7FEFE8C48006808B1012073
:1053600010BD4FF47A70FFF72AFB601EC4B2002C08
:10537000E3DC9AA17E480BF0A7FD98A17D480BF0D5
:10538000A3FD96A17C480BF09FFD94A180480BF0F3
:105390009BFD0020E4E770B5054603F073FB90A188
:1053A000012004F087F940F6B83190A0FFF7D9FD4D
:1053B00008B9032070BD4FF4FA70FFF700FB022418
:1053C0000FE04FF4FA62AFF2A0218BA0FFF7FFFDD0
:1053D00008B10120EEE74FF4FA70FFF7F0FA601E13
:1053E000C4B2002CEDDCC820FFF7E9FA0020E1E7A9
:1053F00010B503F047FB83A1012004F05BF949F6E7
:105400004041AFF2DC20FFF7ACFD10BD10B5022427
:105410009FE040F6B832AFF2F0217EA0FFF7D7FD53
:10542000002873D03220FFF7CAFA7CA16A480BF03B
:1054300039FD002824D07CA17E480BF033FD18B143
:1054400079A07D49086014E07CA17A480BF02AFD20
:1054500018B17AA0784908600BE07AA175480BF082
:1054600021FD18B177A07449086002E06EA072496E
:10547000086002F01CFF74A003F0AFF8012010BD1B
:1054800076A155480BF00EFD002812D075A1694891
:105490000BF008FD18B173A06749086002E075A021
:1054A0006549086002F003FF76A003F096F801203A
:1054B000E5E779A148480BF0F5FC48B178A05E49D2
:1054C000086002F0F4FE79A003F087F80120D6E727
:1054D0007AA141480BF0E6FC48B17AA05649086031
:1054E00002F0E5FE79A003F078F80120C7E77BA180
:1054F00039480BF0D7FC50B17AA04F49086002F050
:10550000D6FE7BA003F069F80120B8E71FE07EA17A
:1055100031480BF0C7FC48B17CA04749086002F055
:10552000C6FE7CA003F059F80120A8E72BA0424951
:10553000086002F0BCFE7CA003F04FF84FF47A70D4
:10554000FFF73DFA02F0B3FE7CA003F046F8601EC0
:1055500084B2002C3FF75DAF20A03749086002F00D
:10556000A6FE7AA003F039F84FF47A70F6E0000056
:1055700018C8072028C8072062C00720E8CC0720E9
:1055800000401C4600007042000080BF08C1072098
:105590006AC0072052656164204E4D45412E2E00A1
:1055A00041542B514750534346473D226E6D656130
:1055B000737263222C310D0041542B5147505347D5
:1055C0004E4D45413D22474741220D002B5147504A
:1055D00053474E4D45413A0072CE07204E410000E0
:1055E00041542B514750533F0D0000002B51475061
:1055F000533A20300000000041542B514750533D96
:105600003100000041542B514944454143543D3140
:105610000D00000041542B5153504E00566F6461F1
:10562000666F6E65000000006D326D6973616665BE
:1056300000000000B5CD072004C10720494F542EBB
:10564000434F4D00777777004F70657261746F72CA
:105650003A0A566F6461666F6E6500006169727424
:10566000656C000061697274656C696F742E636F9C
:105670006D00000061697274656C677072732E63EF
:105680006F6D00004F70657261746F723A0A416904
:105690007274656C000000004964656100000000E0
:1056A000496E7465726E6574000000004F7065721B
:1056B00061746F723A0A49646561000042534E4C4E
:1056C0000000000062736E6C6E6574004F7065724E
:1056D00061746F723A0A42534E4C0000494F545560
:1056E000524C0000494F5455524C2E434F4D000030
:1056F0004F70657261746F723A0A494F5455524C3B
:105700002E434F4D000000004A696F004A696F6EDA
:10571000657400004F70657261746F723A0A4A696D
:105720006F20344700000000415420726573706F91
:105730006E73200A206661696C7300004F70657299
:1057400061746F723A0A4E41000000007265747213
:1057500079200A206661696C73000000FFF72FF959
:1057600002F0A5FDAFF22C0002F037FF4FF4FA6013
:10577000FFF725F9002082E67FB5002400250026EA
:105780000F2464E140F6B832AFF26461FFA0FFF786
:105790001EFC00287ED00A20FFF711F9FDA1FE486B
:1057A0000BF070FBFD490860FAA100200BF06AFBCA
:1057B000FA490860FAA1F94800680BF063FBF74961
:1057C000086008460168F7480BF07EFB00250AE0F8
:1057D000F2480068405D303806EB860100EB41007E
:1057E00086B2681C85B2ED4800680BF0D8FBA84271
:1057F000EED8632E2CD1ECA1EE480BF065FB02F045
:1058000056FD002002F043FDE649EBA002F0E5FE64
:10581000012002F03CFDE749EBA002F0DEFEEB4880
:1058200003F018FD4FF40071E9480BF05AFCE7480B
:1058300042788178C0888DE84700E448437902794E
:10584000E449E3480BF0CEF9E3A1E14806F0CDFBD3
:10585000002E2ED1E2A1D7480BF036FB02F027FD37
:10586000002002F014FDCF49D3A002F0B6FE0120C3
:1058700002F00DFDCF49D4A002F0AFFED34803F0F3
:10588000E9FC4FF40071D2480BF02BFCCF48427872
:10589000817800E0D9E0C0888DE84700CB484379A3
:1058A0000279D1A1CA480BF09DF9CBA1C84806F0F6
:1058B0009CFB012E2DD1052E2BDCC9A1BD480BF080
:1058C00003FB02F0F4FC002002F0E1FCB549BAA0B1
:1058D00002F083FE012002F0DAFCB649BAA002F021
:1058E0007CFEBA4803F0B6FC7102B9480BF0F9FB34
:1058F000B64842788178C0888DE84700B34843793C
:105900000279B9A1B2480BF06DF9B3A1B04806F025
:105910006CFB1F2E16D1C4A1A6480BF0D5FA02F0DD
:10592000C6FC002002F0B3FC9E49A3A002F055FE85
:10593000012002F0ACFC9F49A3A002F04EFE012022
:1059400004B070BD062E31DB092E2FDCB9A19948B9
:105950000BF0BAFA02F0ABFC002002F098FC91497F
:1059600095A002F03AFE012002F091FC914996A028
:1059700002F033FE954803F06DFC4FF4007194483B
:105980000BF0AFFB914842788178C0888DE84700E2
:105990008E48437902798F4948318D480BF022F9BE
:1059A0008DA18B4806F021FB0120C9E70A2E18DBE8
:1059B0000E2E16DCAFF690017E480BF085FA02F051
:1059C00076FC002002F063FC76497BA002F005FE25
:1059D000012002F05CFC77497BA002F0FEFD012073
:1059E000AEE70F2E17DB132E15DC95A171480BF0D7
:1059F0006BFA02F05CFC002002F049FC69496EA0E1
:105A000002F0EBFD012002F042FC6A496EA002F0B8
:105A1000E4FD012094E7142E17DB1E2E15DC82A175
:105A200064480BF051FA02F042FC002002F02FFC17
:105A30005C4961A002F0D1FD012002F028FC5D4923
:105A400061A002F0CAFD01207AE7601E84B2002C3A
:105A50003FF798AE02F02BFC002002F018FC7AA071
:105A600002F0BBFD012002F012FC7BA002F0B5FDAC
:105A70007CA150480BF028FA07207D4908600020DF
:105A80005EE710B5002402F012FC002002F0FFFBDC
:105A900078A002F0A2FD0F2428E002F0F3FFC82056
:105AA000FEF78DFF4FF4967276A179A0FFF78FFA7B
:105AB00048B102F0FCFB79A002F08FFD6420FEF7F4
:105AC0007EFF012010BD4FF4967278A170A0FFF701
:105AD0007EFA48B102F0EBFB77A002F07EFD642075
:105AE000FEF76DFF0120EDE7601EC4B2002CD4DC90
:105AF00006205F49086002F0DAFB72A002F06DFD3B
:105B00000020DFE7FEB50646AFF20851012003F0A2
:105B1000D1FD49F64041AFF6F010FFF722FA6420BC
:105B2000FEF74DFFFFF7ADFF05460DB90020FEBDA6
:105B30006420FEF744FFFFF71FFE05460DB9002065
:105B4000F5E76420FEF73BFF0224FAE0FFF75EFC76
:105B50006420FEF734FF0220FEF731FF5DA1012033
:105B600003F0A8FD0220FEF72AFF5E48016801202D
:105B700003F0A0FD5CA1012003F09CFD4FF4FA614D
:105B8000AFF65C20FFF7EDF96420AFE041542B4302
:105B9000535100003A20000072CE072000C10720B8
:105BA0002C00000085C007206E6F7420417661696B
:105BB0006C00000061C807205369676E616C20515A
:105BC0006C74793A202573002573000000C6072005
:105BD000D4CA0720504401006572722E7478740094
:105BE000706F6F72000000005B253032642F25302B
:105BF00032642F25643B253032643A253032645DAF
:105C00003A5B4552524F525D3A5369676E616C2060
:105C1000737472656E676820697320506F6F723A93
:105C20002025643B00000000457863656C6C656E60
:105C3000740000004D617267696E616C00000000C5
:105C4000474F4F44000000005369676E616C20515C
:105C50006C74793A000000004E6F206E7477726B9E
:105C6000000000006E6F206E7477726B0000000001
:105C70009CC007204E74776B2073726368696E67EF
:105C80002E2E00002B435245473A20302C35000081
:105C900041542B435245473F00000000726F616D35
:105CA000696E672C206F6B21000000002B4352456A
:105CB000473A20302C310000686F6D652C206F6BE7
:105CC00021000000526567204E74776B2045727288
:105CD0002100000041542B5149435347503D312C82
:105CE000312C220004C10720220D0000FEF767FEC0
:105CF00002F0DDFA002002F0CAFAFFA002F06DFC0B
:105D000002F0C0FEAFF6D031012003F0D3FCFD4914
:105D1000AFF6EC30FFF725F905462DB90020FA491A
:105D200008600E20F94908604DB1012002F0AFFA79
:105D3000F7A002F052FC0120F3490860F7E6601E6C
:105D4000C4B2002C3FF702AFF34803F083FA4FF4DC
:105D50000071F2480BF0C5F9EF4843788278C188AA
:105D60008DE80E0043790279EDA1EC480AF03AFF84
:105D7000AFF29C11E94806F038F90020E2490860CA
:105D8000D5E610B50A2424E002F091FA002002F0D2
:105D90007EFAF0A002F021FC012002F078FAF1A0D6
:105DA00002F01BFC6420FEF70AFE4FF4FA62F1A138
:105DB000F4A0FFF70CF908B1012010BD4FF4FA620E
:105DC000F3A1F0A0FFF703F908B10120F5E7601E89
:105DD000C4B2002CD8DC02F06AFA002002F057FAB4
:105DE000EFA002F0FAFB0020E7E770B5052442E0DF
:105DF00002F05DFA002002F04AFAEDA002F0EDFB9D
:105E000002F040FE4FF4FA62AFF6E441ECA0FFF777
:105E1000DEF800282DD03220FEF7D1FD4FF4FA62D3
:105E2000AFF6FC41E9A0FFF7D2F810B33220FEF73D
:105E3000C6FD002518E0E848405D302812DBE64842
:105E4000405D39280EDCE44841191322E3480BF089
:105E500091F90020E149C874DF480BF0A0F8C5B201
:105E6000012070BD681CC5B2DB480BF098F8A84251
:105E7000E1D8601EC4B2002CBADCD9A1D7480BF01F
:105E800023F8012002F003FAD7A002F0A6FB4FF49A
:105E9000FA60FEF794FD0020E3E770B51021D648C4
:105EA0000BF01FF9052440E041F27072AFF6885103
:105EB000D2A0FFF78CF8002835D03220FEF77FFD06
:105EC00000252BE0C448405D302825DBC248405DFA
:105ED000392821DCC04841190F22C7480BF04AF984
:105EE0000020C549C873BC480BF059F885B202F0D0
:105EF000DEF9002002F0CBF9C2A002F06EFB012017
:105F000002F0C5F9BC49AFF2403002F066FBC82090
:105F1000FEF755FD012070BD681C85B2AE480BF040
:105F20003EF8A842CED8601E84B2002CBCDC002013
:105F3000F1E770B500254FF49672B6A1B8A0FFF74F
:105F400046F830B94FF49672B8A1B5A0FFF73FF804
:105F500048B1B9A1012003F0ADFB4FF47A71AFF65F
:105F60003860FEF7FEFF33E00A242FE002F09FF9CD
:105F7000002002F08CF9B3A002F02FFB02F082FDAA
:105F80004FF49672AFF66061B2A0FFF720F888B1C7
:105F90004FF49672AFF67061AFA0FFF718F848B1F2
:105FA000012002F074F9AEA002F017FB1420FEF7F6
:105FB00006FD012545B1FFF770FF05460DB1012033
:105FC00000E00020C0B270BD601EC4B2002CCDDC69
:105FD000CAE710B5FFF7ADFFC0B1A2480068FFF7F0
:105FE000DAF9A1490870AFF64821012003F062FBFD
:105FF00040F6B831AFF6D060FEF7B3FFFFF7F5FE1D
:1060000020B1FFF7BEFE08B1012010BDAFF634206D
:1060100094490860AFF63C2194480AF055FFAFF66A
:10602000442193480AF050FFAFF6502191480AF0FE
:106030004BFFAFF6582190480AF046FFAFF2DC3133
:106040008E480AF041FFAFF66C218D480AF03CFF04
:106050000020DAE770B503F05AFE02F013FD0224C7
:1060600006E0FFF7B6FF054605B103E0012070BD6D
:10607000002CF6DC00BF02F005FD002D2AD002F056
:1060800016F9002002F003F97EA002F0A6FA012022
:1060900002F0FDF87FA002F0A0FAC820FEF78FFC06
:1060A00070480068FFF72EFD054602F0EBFC002D5E
:1060B00021D0FFF79DF96B480068FFF76CF90646A1
:1060C000FFF722F9C820FEF77AFCFEF7BFFFFEF7C4
:1060D000B1FFCCE702F0EBF8002002F0D8F869A09D
:1060E00002F07BFA012002F0D2F86EA002F075FAFD
:1060F0004FF4FA60DEE0E1E070647020636865638D
:106100006B2E2E00C0D4010098C007209CC0072031
:106110004F4B20210000000000C60720D4CA0720F2
:106120005B253032642F253032642F25643B2530C7
:1061300032643A253032645D3A5B4552524F525DCB
:106140003A4750525320434F4E4E204641494C3B14
:1061500000000000436F6D6D756E69636174696F57
:106160006E000000496E697469616C697A696E67D6
:106170002E2E2E002B51494E49535441543A203370
:106180000000000041542B51494E495354415400E2
:106190002B51494E49535441543A203700000000D6
:1061A00053494D204353204661696C6564000000EB
:1061B000436865636B2053494D436172642E2E0022
:1061C00041542B4350494E3F0000000041542B5195
:1061D000434349440000000072CE072048C807200E
:1061E0005F6572726F72000053494D206E6F7420AC
:1061F000666F756E6400000038C8072041542B4755
:10620000534E000044657669636520494D45493A1F
:10621000000000002B434D45453A203100000000AE
:1062200041542B434D45453F000000002B434D4555
:10623000453A20300000000041542B434D45453D78
:10624000320D00006D6F64656D20696E69742E2ECD
:10625000000000004154000041544531000000009E
:106260004F4B210004C1072091C0072018C8072008
:1062700028C807206AC0072062C0072061C807201D
:1062800085C007204D6F64656D20456E67696E653A
:1062900000000000496E697469616C697A65642068
:1062A000212100004572726F7220436F6D6D2E2E9A
:1062B00020212100FEF783FB0120D8E60020D6E64E
:1062C00010B500214220FEF793FC4FF47A70FEF7E0
:1062D00076FB10BD10B5FEF78BFE01214220FEF7C4
:1062E00087FC4FF47A70FEF76AFB10BD70B5002191
:1062F0003520FEF77DFC4FF4FA50FEF760FBFFA15E
:10630000012003F0D7F940F6B831FFA0FEF729FECF
:10631000044664B9FFF7DEFFFFF7D2FF4FF4FA50EF
:10632000FEF74DFBFFF796FE0546284670BD20465A
:10633000FCE710B501F0BBFF002001F0A8FFF3A0BF
:1063400002F04BF902F09EFB02242AE043F6982269
:10635000EDA1F2A0FEF73BFE58B1012001F097FF3E
:10636000F1A002F03AF940F6B830FEF728FB012020
:1063700010BDC820FEF723FB43F69822E2A1EDA052
:10638000FEF725FE58B1012001F081FFECA002F0DC
:1063900024F94FF4FA50FEF712FB0120E8E7601EE3
:1063A000C4B2002CD2DC0020E2E710B502F06AFB98
:1063B000E7A1012003F07EF94FF47A71E7A0FEF720
:1063C000D0FD58B9E8A1012003F074F94FF47A71B7
:1063D000CDA0FEF7C6FDFFF7ACFF10BD0120FCE726
:1063E00030B58FB0044625462C461235294607A8FD
:1063F0000AF06AFD32208DF8140030208DF8150067
:106400009DF81D008DF816009DF81E008DF81700F0
:1064100000208DF818009DF820008DF810009DF8E0
:1064200021008DF8110000208DF812009DF8230046
:106430008DF80C009DF824008DF80D0000208DF8DB
:106440000E009DF826008DF808009DF827008DF8B5
:10645000090000208DF80A009DF829008DF804003D
:106460009DF82A008DF8050000208DF806009DF8A3
:106470002C008DF800009DF82D008DF80100002003
:106480008DF8020002A8FEF745F9BA49887001A804
:10649000FEF740F9B74948706846FEF73BF9B54941
:1064A000087003A8FEF736F9B249087104A8FEF790
:1064B00031F9B049487105A8FEF72CF9AD49C880FB
:1064C0000846C088B0F5026F0BD00846C08840F27D
:1064D000E571884205DBA74802F0A2FE01200FB05B
:1064E00030BD0020FBE710B5A34CA4A1012003F0B0
:1064F000E1F84FF47A7184A0FEF733FD2046FFF7F0
:106500006FFF10BD10B5A0A1012003F0D3F840F635
:10651000B8317DA0FEF725FD10BD10B5002401F0B7
:10652000C6FE002001F0B3FE9BA002F056F80F2437
:1065300027E002F0A7FAC820FEF741FA994A9AA18B
:106540009CA0FEF744FD50B1012001F0A0FE9CA0EC
:1065500002F043F8C820FEF732FA012010BD914A3C
:106560009AA194A0FEF733FD50B1012001F08FFEF7
:1065700093A002F032F8C820FEF721FA0120EDE7DF
:10658000641E002CD5DC012001F081FE92A002F0F7
:1065900024F80920934908604FF47A70FEF70FFA47
:1065A0000020DBE72DE9F0478CB00446894615460C
:1065B00001F07DFE002001F06AFE8BA002F00DF8D4
:1065C000012001F064FE8AA002F007F802F05AFAF6
:1065D00020460AF0E4FC82465023024687A105A823
:1065E00000950AF0FFFA05A9012003F063F8894934
:1065F00089A0FEF7B6FC00287ED002F043FA47F2ED
:10660000305241A12046FEF7E2FC85A15A480AF02B
:1066100049FC20B984A158480AF044FC40B101F07B
:1066200046FE83A001F0D9FF01200CB0BDE8F08741
:1066300047F2305282A17AA0FEF7ABFC064636B193
:1066400001F035FE7AA001F0C8FF0120EDE701F06E
:106650002EFE7CA001F0C1FFFFF73CFE40F2BE2001
:10666000604908604FF400717A480AF03AFD4148E9
:1066700002F0F0FD5B4803683E4842788178C088AC
:106680008DE80F003B484379027973A171480AF005
:10669000A9FAAFF6BC216F4805F0A7FC7BA13648EC
:1066A0000AF000FC78B97DA133480AF0FBFB50B931
:1066B0007EA131480AF0F6FB28B983A12E480AF0E2
:1066C000F1FB002819D0FFF705FE02F0DBF96FA1FE
:1066D00029480AF0E7FB18B140F2BF2041490860A1
:1066E0006EA125480AF0DEFB18B140F2CA203D49F0
:1066F000086075A12048F3E077E10EE241542B5188
:1067000053434C4B3D300D004F4B000046756E74AB
:10671000696F6E616C6974792E2E2E0041542B4383
:1067200046554E3D300000002B204D696E696D7559
:106730006D202B0041542B4346554E3D3100000047
:106740002B2046756C6C206D6F6465202B0000005B
:1067500041542B43545A553F0D0000002B43545ACB
:10676000553A20330000000041542B43545A553D04
:10677000330D000000C6072072CE072041542B4382
:10678000434C4B3F0D00000041542B51474E535397
:10679000433D310D000000004750525320537461B7
:1067A00074757300F04902002B43475245473A2065
:1067B000302C350041542B43475245473F000000E1
:1067C000436F6E6E65637465642021002B434752EE
:1067D00045473A20302C3100636865636B696E670A
:1067E0002E2E2E009CC0072053656E64696E6700D4
:1067F0005061636B65742E2E2E00000041542B51A6
:1068000048545450504F53543D25642C25642C2536
:10681000640D0000C0D40100434F4E4E4543540068
:106820002C323030000000002C33303200000000E9
:10683000506F737420537563636573732021210057
:1068400033303200506F7374206661696C202121EF
:1068500000000000D4CA07205B253032642F2530A9
:1068600032642F25643B253032643A253032645D32
:106870003A5B4552524F525D3A2B434D45204552AB
:10688000524F52203A2025643B0000002B434D45D7
:10689000204552524F523A20373033002B434D455A
:1068A000204552524F523A20373134002B434D4548
:1068B000204552524F523A204874747020646E73CF
:1068C000206572726F7200004D4F44454D5F524516
:1068D00053504F4E53455F54494D454F555400005A
:1068E0000AF0E0FA18B140F2BE20FB4908604FF40C
:1068F0000071FA480AF0F5FBF94802F0ABFCF648E3
:106900000368F74842788178C0888DE80F00F44822
:1069100043790279F349F1480AF064F9AFF6485136
:10692000EE4805F062FBFFF7D5FCFFF7C9FC4FF41A
:106930007A70FEF744F8FFF78DFB8046B8F1000F40
:1069400035D0204600F046F90746022F03D0052F28
:1069500001D0002F29D101F0AAFC002001F097FC02
:10696000E1A001F03AFEFFF7B5FC4FF40071DB48FF
:106970000AF0B7FBDA4802F06DFCD9484378827818
:10698000C1888DE80E0043790279DBA1D3480AF073
:1069900029F9AFF6BC51D14805F027FB4FF47A70C6
:1069A000FEF70DF8052700203FE601203DE64FF4F5
:1069B0000071CA480AF095FBC94802F04BFCC84870
:1069C00043788278C1888DE80E0043790279D8A196
:1069D000C2480AF007F9AFF60061C04805F005FBB0
:1069E0000020E349086005271FE6AFF26011E14887
:1069F0000AF058FA90B9AFF25C11DE480AF052FA88
:106A000060B9AFF25811DB480AF04CFA30B9AFF276
:106A10004811D8480AF046FA00287ED0FFF75AFC01
:106A200002F030F8AFF29C11D2480AF03BFA18B1EC
:106A300040F2BF20A8490860AFF2A011CD480AF08B
:106A400031FA18B140F2CA20A3490860AFF28811A8
:106A5000C8480AF027FA18B140F2BE209E490860E3
:106A60004FF400719D480AF03CFB9D4802F0F2FB98
:106A7000994803689A4842788178C0888DE80F0069
:106A80009748437902799749443194480AF0AAF823
:106A9000AFF6BC61914805F0A8FAFFF71BFCFFF7C1
:106AA0000FFC4FF47A70FDF78AFFFFF7D3FA8046A8
:106AB000B8F1000F34D0204600F08CF80746022FC2
:106AC00003D0052F01D0002F28D101F0F0FB0020CA
:106AD00001F0DDFB84A001F080FD4FF400717F48E0
:106AE0000AF0FFFA7E4802F0B5FB7D4843788278D1
:106AF000C1888DE80E00437902797FA177480AF0BA
:106B000071F8AFF62C71754805F06FFA4FF47A7092
:106B1000FDF755FF0527002087E51FE0012084E5EC
:106B20004FF400716D480AF0DCFA6D4802F092FBF8
:106B30006B4843788278C1888DE80E0043790279EA
:106B40008DA166480AF04EF8AFF67471634805F0FF
:106B50004CFA002086490860052766E565E530B5F2
:106B600087B0044694A1012002F0A4FD40F6B8319C
:106B7000AFF26C40FEF7F5F901F084FF20460AF011
:106B80000EFA0546024693A168460AF02BF86946BC
:106B9000012002F08FFD47F23051AFF28430FEF752
:106BA000E0F940B147F23052AFF2A4412046FEF77F
:106BB0000EFA07B030BD0020FBE710B501F062FF10
:106BC00089A1012002F076FD40F6B83189A0FEF7D8
:106BD000C8F910BD70B50446FFF7EFFF88B901F0A2
:106BE00066FB87A001F0F9FC022507E089480068F0
:106BF000FEF788FF00B103E0002070BD002DF5DC3A
:106C00000DE08548FFF7ABFF3220FDF7D8FE50229C
:106C100011462046FFF7C6FC06463046EDE77E48A3
:106C2000FFF79DFF502211462046FFF7BBFC0646AA
:106C30003046E2E710B579A1012002F03BFD4FF4A8
:106C40007A71AFF23C50FEF78CF910BD0120764905
:106C50000860764800680D2803D301207349086056
:106C600004E072480068401C70490860704710B525
:106C70006FA1012002F01EFD40F6B831AFF278504E
:106C8000FEF76FF910BD10B586B0044600206C49C0
:106C9000086022466BA101A809F0A4FF01A9012008
:106CA00002F008FD40F6B831AFF2A450FEF759F9F2
:106CB00006B010BD38B54FF4FA70FDF780FE64A140
:106CC0002C480AF0EFF8002805D001F0DBFE002088
:106CD0005B490860D3E04AE19CC00720D4CA072082
:106CE00000C60720DC44010020506F7374206661E9
:106CF000696C6564202100005B253032642F2530EB
:106D000032642F25643B253032643A253032645D8D
:106D10003A5B4552524F525D3A7061636B65742025
:106D200073656E64696E67206661696C65643B00BB
:106D30005B253032642F253032642F25643B2530AB
:106D400032643A253032645D3A5B4552524F525DAF
:106D50003A4D6F64756C6520696E697469616C6920
:106D60007A6174696F6E206661696C65643B0000CE
:106D700098C0072072CE07205B253032642F253063
:106D800032642F25643B253032643A253032645D0D
:106D90003A5B4552524F525D3A4D6F64756C6520B7
:106DA000696E697469616C697A6174696F6E206675
:106DB0006169656C643B000041542B514854545048
:106DC0004346473D22636F6E746578746964222C74
:106DD000310D000041542B514854545055524C3DF4
:106DE00025642C33300D000041542B51494143544C
:106DF0003F0D00002B51494143543A20312C3100C2
:106E000049502061737369676E204661696C6564DF
:106E10000000000004C1072070C8072041542B5116
:106E20004953544154450D00A0C00720A4C0072079
:106E300041542B434D47443D312C340D000000009C
:106E4000FCC0072041542B434D47443D25640D00B1
:106E50002B434D4752000000FE48FF490968405C43
:106E60000D2805D0FB48FC490968405C0A2805D17B
:106E7000F9480068401CF849086000E000E0EBE7D2
:106E800000BF04E0F4480068401CF3490860F14882
:106E9000F1490968405C2C28F4D1EF480068801C57
:106EA000ED49086000240BE0EA48EB490968405CC2
:106EB000EA490855E8480068401CE7490860641C36
:106EC0000C2CF1DDE4480068C01CE3490860002494
:106ED00000BF0BE0DF48E0490968405CE049085525
:106EE000DD480068401CDC490860641C0F2CF1DBA5
:106EF0002220DB49085500BFD7480068401CD6490E
:106F0000086008460068401ED249085C0A28F3D190
:106F100000240BE0CF48D0490968405CD1490855AE
:106F2000CD480068401CCC490860641CC948CA4967
:106F30000968405C0D28EDD10020C7490860C949A7
:106F40000855C9480068401CC74908604FF40071E3
:106F5000C6480AF0C6F8C34B0093C04BC04AC4A150
:106F6000C24809F03FFEC6A1C04805F03EF8002027
:106F7000C749087038BD3EB50446FDF7E9FF224613
:106F8000C4A1684609F02EFE6946012002F092FB7A
:106F900040F6B831AFF69000FDF7E3FFFFF78AFE49
:106FA0003EBD2DE9F04F89B000200890079003A85E
:106FB00000210A460B460D462EC0002500278846B4
:106FC00089468A4601F05EFDB5A1012002F072FB00
:106FD00040F6B831AFF6D000FDF7C3FF4FF4FA70BA
:106FE000FDF7EDFCB4A19B4809F05CFF00287DD0C3
:106FF0003A21984809F04CFF841C08E02846691C97
:10700000CDB2225C3846791CCFB208A90A54605D23
:107010002C28F3D1002008A9C85508A8FDF77AFB51
:107020008046681CC5B2002708E02846691CCDB21E
:10703000225C3846791CCFB207A90A54605D2C281F
:10704000F3D1002007A9C85507A8FDF763FB8246C6
:10705000B8F1000F72D001F015FD994805F04DF917
:10706000C6B296B101F023F9002001F010F995A005
:1070700001F0B3FA012001F00AF994A001F0ADFA91
:107080004FF4FA60FDF79BFC2CE094A18C4809F0CA
:10709000F9FE01460290924809F016FF8FA10020E8
:1070A00009F0F0FE014602908E4809F00DFF8BA119
:1070B000002009F0E7FE014602908B4809F004FF2A
:1070C00086A1002009F0DEFE01460290874809F003
:1070D000FBFE82A1002009F0D5FE01460290844803
:1070E00009F0F2FEA8F10109484600E0A6E1FFF729
:1070F00042FF4FF4FA70FDF762FC7EA1594809F097
:10710000D1FE08B14FF0010B7CA1564809F0CAFE30
:1071100008B14FF0020B7CA1524809F0C3FE08B140
:107120004FF0030B01F0AEFCBBF1010F07D0BBF138
:10713000020F35D0BBF1030F7DD123E16CE1AFF637
:10714000B801484809F09EFE01460290644809F0E3
:10715000BBFE634A6DA1022002F084FB4FF4007174
:10716000424809F0BEFF624B604A5F498DE80E005D
:107170005C4B5B4A68A13D4809F034FD6AA13B487D
:1071800005F0F9F84846FFF77EFD012001F07FF891
:1071900067A001F022FA4FF4FA60FDF710FC3AE123
:1071A000AFF61C112F4809F06DFE0146029003A8AE
:1071B00009F08AFEAFF63011002009F063FE0146A7
:1071C0000290484809F080FEAFF64411002009F013
:1071D00059FE01460290444809F076FEAFF6581178
:1071E000002009F04FFE01460290404809F06CFE75
:1071F0003C48FDF78FFA514908703B48FDF78AFA81
:107200004F4908703948FDF785FA4E49087003AABE
:107210004DA1022002F026FB354B4A48027848482F
:10722000017846488DE80E0003782D4A494902202E
:1072300002F018FB00E0E3E04FF400710B4809F0A6
:1072400050FF2B4B294A28498DE80E00254B244A34
:1072500031A181E072CE0720FCC007204CCD072071
:10726000A4CD07205ACD072050C0072018C60720FC
:107270005B25735D3B5B25735D3B25730000000060
:10728000726563765F534D532E747874000000006E
:107290004CC0072041542B434D47523D25640D00FF
:1072A00041542B43504D533D22534D222C22534DDC
:1072B000222C22534D220D002B43504D533A0000F7
:1072C000EED10720436F6E666967200066696C65C2
:1072D000206E6F7420666F756E642E007C00000057
:1072E00070C80720E3C00720E7C00720EBC00720D5
:1072F000B5CD0720687474703A0000004C6F676960
:107300006E74657276616C0041504E0055524C3A75
:107310002573200A0D00000025737C25737C2573DE
:107320007C25737C25730000494E492E74787400C7
:1073300055524C205570646174650000E0C0072010
:10734000E1C00720E2C00720466C61673A25732040
:107350000A0D0000FC450100F44809F043FCAFF2BF
:107360003801F24805F007F84846FFF78CFC012089
:1073700000F08DFFEEA001F030F94FF4FA60FDF758
:107380001EFB48E0AFF60031ED4809F07BFD0146F9
:10739000029003A809F098FDAFF61431002009F01F
:1073A00071FD01460290E74809F08EFDE54B03AA06
:1073B000E5A1022002F056FA4FF40071DB4809F013
:1073C00090FEE04BE64AE7498DE80E00E64BE74ABF
:1073D000AFF2BC01D54809F005FCAFF2B401D348C7
:1073E00004F0C9FF4846FFF74EFC012000F04FFFB4
:1073F000DFA001F0F2F84FF4FA60FDF7E0FA0AE0DE
:10740000012000F044FFDDA001F0E7F84FF4FA603E
:10741000FDF7D5FA00BF0BE000F049FF002000F0B7
:1074200036FFDAA001F0D9F84FF47A70FDF7C7FA09
:10743000AAF10200404501DAFFF719FC09B0BDE8E6
:10744000F08F10B501F01EFBD4A1012002F032F93B
:1074500040F6B831AFF65050FDF783FD4FF4FA70A7
:10746000FDF7ADFAAFF2C811012002F023F940F6A2
:10747000B831AFF66C50FDF774FD4FF4FA70FDF7BC
:107480009EFAC9A1012002F015F940F6B831AFF615
:107490008850FDF766FD4FF4FA70FDF790FAC5A12C
:1074A000012002F007F940F6B831AFF6A450FDF71D
:1074B00058FD4FF4FA70FDF782FA10BD70B5A8B010
:1074C00025A800210A460B460EC022A80EC01FA800
:1074D0000EC01CA80EC019A80EC016A80EC0B94830
:1074E00001F0B8FE00228121802003F0D5F902F0DE
:1074F000B8FCFDF71FFCFCF7E6FFB348007838B98D
:10750000B2A1B34809F0E0FCB0A1B24809F0DCFC3C
:107510000020AD490870B048007838B9AFA1B14833
:1075200009F0D2FCADA1B04809F0CEFC0020AA4978
:10753000087001F0A7FAAB4925A809F0C5FCA949D4
:1075400022A809F0C1FCA8491FA809F0BDFCA64962
:107550001CA809F0B9FC9F4919A809F0B5FC9D4980
:1075600016A809F0B1FC4FF40071A04809F0B9FD6C
:107570009F4BA04AA049964812AD0FC5034616AAD4
:1075800019A916A80EAD0FC516AB1FAA1CA99648BF
:107590000AAD0FC525AB22AA9249984806AD0FC582
:1075A000974B884842788178C08802AD0FC58548DE
:1075B00043790279CDE90023924B934A93498B4852
:1075C00009F010FB02F0A3FBFEF790FE0546002D2C
:1075D0005ED001F057FA022608E08D480068FEF7F9
:1075E00091FA054605B103E0701EC6B2002EF4DC28
:1075F00000BF002D34D07D48FFF7ECFA0446022C82
:1076000002D0052C00D034B9FFF714FB18B177482D
:10761000FFF7E0FA0446022C02D0052C00D0A4B9F2
:1076200000F045FE002000F032FE7AA000F0D5FF09
:10763000012000F02CFE7C4801687CA000F0CDFF0A
:107640004FF4FA60FDF7BBF91DE0012000F01FFECA
:1076500079A000F0C2FF4FF4FA60FDF7B0F912E034
:1076600000F025FE002000F012FEAFF6841000F0BE
:10767000B4FF012000F00BFE73A000F0AEFF4FF44A
:107680007A70FDF79CF9FFF7DCFEFFF78AFC12E049
:1076900000F00DFE002000F0FAFDAFF6B41000F08F
:1076A0009CFF012000F0F3FD6BA000F096FF4FF46B
:1076B0007A70FDF784F9FDF79BFEFDF7A7FC02F059
:1076C0002BFB28B070BD30B587B04620FDF777F9A9
:1076D000654800680E280ED2DFE800F00D070E2086
:1076E000F3FAF0EFEEEDECEBEA2700F0E0FD4549B0
:1076F0005EA000F072FF70E2324801F0ABFD00F0D6
:10770000D6FD30480378427881788DE80E00C38832
:10771000427901795AA000F060FF5EE200F0C7FDF7
:1077200039495FA000F059FF57E20DE218C6072063
:10773000496E74657276616C205570646174650081
:107740005ACD0720B5CD0720466C61673A257320D6
:107750000A0D2041504E3A2573200A0D000000000A
:10776000EBC00720E7C00720E3C0072070C8072050
:1077700041504E2055706461746500004E6F74680E
:10778000696E67205570646174650000534D532025
:107790006E6F7420666F756E6420000041542B4339
:1077A0004D47463D310D000041542B435344483D65
:1077B000310D000041542B435343533D2247534D59
:1077C000220D000000C6072099C40720393939006E
:1077D0009AC407209EC4072089C507202D3939394E
:1077E00000000000B2CF0720BCCF0720D4C807207C
:1077F00085C007207DC007206DC007201CC0072062
:1078000022C00720ECC5072038C8072064450100C6
:1078100004C1072055706C6F6164696E67206661F2
:10782000696C6564000000009CC0072045727220EE
:107830003A2025640000000055706C6F6164696E29
:107840006720446F6E6500004750525320434F4EEF
:107850004E204641494C0000415420434D442046AF
:1078600041494C4544000000A4C00720484457202B
:1078700053542D30313031200A46575220257300A1
:107880002020202532642F2532642F25640A2020F1
:1078900020202532643A2532643A25326400000003
:1078A00044657669636520494D45493A0A25730068
:1078B00039E126E112E1EBE0C6E09EE010E007E0EE
:1078C000FFE700F0F4FCF749F7A000F086FE84E142
:1078D00000F0EDFCF6480168F6A000F07EFE7CE1C9
:1078E0000020FCF7C4FDF8490860084600680BF06A
:1078F00055FCCDE90401F5A00CC804980BF0A2FCDE
:10790000CDE90201F3A00CC802980BF0C1F9CDE952
:1079100000010BF01FF8F1490860084600680CF000
:10792000CDF8CDE90401EEA00CC804980BF08AFC58
:10793000CDE90201E5A00CC802980BF0A9F9CDE948
:1079400000010BF007F8E84908603220FDF737F82E
:107950000120FCF78CFDE5490860084600680BF043
:107960001DFCCDE90401D9A00CC804980BF06AFCF9
:10797000CDE90201D7A00CC802980BF089F9CDE936
:1079800000010AF0E7FFDA490860084600680CF0D9
:1079900095F8CDE90401D7A00CC804980BF052FC6F
:1079A000CDE90201C9A00CC802980BF071F9CDE92C
:1079B00000010AF0CFFFD14908600222D049CA482D
:1079C0000068FCF7F8FE0222CE49CC480068FCF7BC
:1079D000F2FE00F06CFC002000F059FCC849CAA07F
:1079E00000F0FBFD012000F052FCC649CAA000F0E7
:1079F000F4FDC820FCF7E3FFEFE0002281218020A6
:107A000002F04AFFC820FCF7DAFFC748007838B90F
:107A1000C6A1C74809F058FAC4A1C64809F054FAEB
:107A20000020C149087000F042FC002000F02FFC4B
:107A3000BF49C1A000F0D1FD012000F028FCBD49E4
:107A4000C1A000F0CAFDC8E002F00BFAC820FCF7A4
:107A5000B6FFC148007838B9B4A1C04809F034FA7B
:107A6000B2A1BF4809F030FA0020BB49087000F00D
:107A70001EFC002000F00BFCB849BAA000F0ADFDE0
:107A8000012000F004FCB649BAA000F0A6FDA4E075
:107A9000BC4800680BF098FBCDE90401BA480CC85B
:107AA00004980BF0CFFBB94A03C2B84803C80AF0E8
:107AB00051FF05460222B649FCF77DFE00F0F7FBB8
:107AC000002000F0E4FBB3A000F087FD012000F0EF
:107AD000DEFBAF49B2A000F080FD7EE000F0E7FBE6
:107AE000002000F0D4FBB049B04800F076FD012042
:107AF00000F0CDFBAE48AF490268AFA000F06DFDCD
:107B00006BE000F0D4FB002000F0C1FBADA000F062
:107B100064FD012000F0BBFBAE4BAF4AAF49B0A003
:107B200000F05BFD59E000F0C2FB002000F0AFFB6D
:107B3000AE49AFA000F051FD012000F0A8FBAF4915
:107B4000AFA000F04AFD48E00120FCF7C4FF00F0C0
:107B5000AEFB002000F09BFBACA000F03EFD01203E
:107B600000F095FBADA000F038FD00214B20FDF7A3
:107B700009F800214B20FDF725F84FF49660FCF73B
:107B80001EFF4B20FDF759F80446C4B94FF47A7034
:107B9000FCF715FF4B20FDF750F804467CB900F0C8
:107BA00086FB002000F073FBA1A000F016FD012071
:107BB00000F06DFBA3A000F010FDFFF77FFC00209C
:107BC000A4490860A44908600222AFF67F71012031
:107BD000FCF70EFF00F06BFB00BF00BF07B030BD2D
:107BE00010B5AFF24841012001F064FD40F6B83114
:107BF0009AA0FDF7B6F99AA1012001F05BFD40F6CD
:107C0000B83196A0FDF7ADF9AFF66C11012001F087
:107C100051FD40F6B83191A0FDF7A3F9AFF26C41E8
:107C2000012001F047FD40F6B8318CA0FDF799F92D
:107C300010BD38B500208F4908604FF4FA70FCF78A
:107C4000BEFE12E08C488B490968405C0D2805D0C7
:107C5000894888490968405C0A2805D18548006838
:107C6000401C8449086000E000E0EBE700BF83A10E
:107C7000814809F017F9002812D004E07D48006817
:107C8000401C7C4908607C487A490968405C2C2883
:107C9000F4D178480068401C764908600024FDE073
:107CA0000CE1000048C80720434349443A257300CB
:107CB00004C107204F70657261746F722041504E8D
:107CC0003A0A25730000000004C007206666666655
:107CD00066660A400000000000FEAF400CC00720AE
:107CE0007B14AE47E13A354014C0072008C0072096
:107CF00010C0072052B81E85EB71434018C0072002
:107D00001CC0072022C0072042617474203A20253D
:107D10003031732056000000536F6C61723A202599
:107D2000303173205600000089C507204E41000005
:107D3000D4CC0720DECC072054656D70282743295A
:107D40003A202573000000005248756D69642020B8
:107D50003A2025730000000099C40720EFC00720D7
:107D6000F3C007205764697228646567293A2025A3
:107D70007300000057737064286D2F73293A202513
:107D800073000000DCC00720E8500000B8C00720E6
:107D900075C007205261696E2066616C6C0000003E
:107DA0002573206D6D00000085C00720B85B0000C2
:107DB00098C0072061C8072025732C7064703A2092
:107DC00025316400734C6F677C704C6F677C724C1C
:107DD0006F670000EBC00720E7C00720E3C0072063
:107DE00025737C25737C25730000000018C80720CC
:107DF0004C6174203A2025730000000028C8072039
:107E00004C6F6E203A20257300000000507265739D
:107E100073202620486F6C6400000000746F20738C
:107E2000656E642074657374206C6F6700000000D9
:107E30002B2B2B2054657374206C6F67202B2B2BFE
:107E40000000000055706C6F6164696E672E2E2E05
:107E500000000000A0C00720A4C007204F4B000076
:107E600041542B43534D503D31372C3136372C3054
:107E70002C300D00FCC0072072CE0720434D544922
:107E80003A000000684869490968405C0DF8040040
:107E900066480068401C65490860641C6248634984
:107EA0000968405C0D28EDD1684608F0DDFF6049A7
:107EB000086000205D490860012038BD0020FCE713
:107EC000F0B589B004460D460026002057490860E9
:107ED000224658A1684608F085FE6946012001F057
:107EE000E9FBC820FCF76BFD00F0CCFD24E04E4818
:107EF0004E490968405C3E2819D100204B49086072
:107F0000494809F04CF807460146474809F0E9F8A6
:107F10002946012001F0CEFB1A21012001F0B9FB16
:107F20004849AFF2C800FDF71CF8064605E03F4897
:107F30000068401C3D490860D9E700BF4FF49670C7
:107F4000FCF73DFD002039490860684609F027F834
:107F500007460146684609F0E6F816B1012009B067
:107F6000F0BD0020FBE710B586B00446224636A1DE
:107F700001A808F037FE01A9012001F09BFB06B023
:107F800010BD10B532A1012001F094FB10BD0020FE
:107F90002649086012E0244824490968405C0D28FD
:107FA00005D0214821490968405C0A2805D11F48AD
:107FB0000068401C1D49086000E000E0EBE700BFDE
:107FC00004E01A480068401C184908601648174920
:107FD0000968405C0D28F4D10020144908607047FE
:107FE00070B5002400251CA1012001F063FB40F6C0
:107FF000B8311CA0FCF7B5FFA0B13A210A4808F03F
:1080000047FF861D08E02046611CCCB2325C284642
:10801000691CCDB215490A54305D2228F3D10020E5
:108020001249485570BD000072CE0720FCC00720E1
:1080300048C0072041542B434D47533D222573220E
:108040000D000000C0D4010041544425733B0D00D5
:108050004154480D0000000041542B435343413F1D
:108060000D0000002B435343413A000096CD0720FA
:108070002DE9F05F04460D4616461F46DDE90CABC0
:10808000DDE90A89FD48C47005714671877180F881
:10809000078080F8089080F809A080F80AB0F749B6
:1080A0000E98C8720F98087310984873FF2F08D065
:1080B000B8F1FF0F05D0B9F1FF0F02D0BAF1FF0FF1
:1080C00003D10420ED49887012E00820EB49887044
:1080D00001213846FCF776FD01214046FCF772FD90
:1080E00001214846FCF76EFD01215046FCF76AFD70
:1080F00001212046FCF766FD01212846FCF762FDC0
:1081000001213046FCF75EFD01215846FCF75AFD7F
:1081100001210E98FCF756FD01210F98FCF752FD46
:1081200001211098FCF74EFDBDE8F09F10B5D34932
:10813000C8780021FCF75CFDD04908790021FCF7E4
:1081400057FDCE4948790121FCF752FD0A20FCF782
:1081500029FCCA4948790021FCF74AFD10BD10B539
:108160000446C649887AC4F30011FCF741FDC349AF
:10817000C87AC4F34011FCF73BFDC049087BC4F347
:108180008011FCF735FDBD49487BE109FCF730FD66
:1081900010BD10B5044604F00101B84A9079FCF70F
:1081A00027FDB649C879C4F34001FCF721FDB34966
:1081B000087AC4F38001FCF71BFDB049487AC4F388
:1081C000C001FCF715FD10BD10B5AC480079FF28C3
:1081D00040D0AA49487B0021FCF7F4FCA749C878A5
:1081E0000021FCF705FDA54908790121FCF700FDF8
:1081F00000BFA24948790021FCF7FAFC0A20FCF7ED
:10820000D1FB9E4948790121FCF7F2FC0A20FCF7DA
:10821000C9FB9A49487BFCF710FD044697488078D3
:1082200004280FD1954948790021FCF7E1FC0A2088
:10823000FCF7B8FB914948790121FCF7D9FC0A20E9
:10824000FCF7B0FB002CD4D18C49487B0121FCF712
:10825000B9FC02E00120FCF7B2FB10BD10B50446EA
:10826000FFF7B2FF85488078082803D12046FFF742
:1082700090FF06E02046FFF772FFFFF757FF200749
:10828000040E2046FFF76BFFFFF750FF10BD10B53F
:1082900004467A480078A04208DD0020784908703A
:1082A000784804707849085DFFF7D8FF10BD10B515
:1082B0000120FFF7D3FF0020FFF7E9FF10BD10B545
:1082C0003020FFF74CFFFFF731FF6420FCF777FB0E
:1082D0003020FFF744FFFFF729FFC820FCF762FBBF
:1082E0003020FFF73CFFFFF721FFC820FCF75AFBC7
:1082F0002020FFF734FFFFF719FFC820FCF752FBDF
:1083000010BD70B504460D465C4845700470022CE3
:1083100008DD05F00F0090305B49887005F00F0014
:10832000D030C8706420FCF74AFB54488078082895
:1083300003D13820FFF792FF08E0504880780428E6
:1083400004D1FFF7BCFF2820FFF788FF0C20FFF7C0
:1083500085FFFFF7ACFF70BD10B54A480078401CA0
:10836000484908700020464908704448007845494B
:108370000978884202DC0020424908704249414A9B
:108380001278885CFFF76AFF10BD70B504460D4691
:108390003A480078A0420DDD38484078A84209DD0F
:1083A00037480570374804703749095D2944C8B219
:1083B000FFF754FF70BD10B53049C8780121FCF7B4
:1083C00017FC2E4908790021FCF712FC2B4948794B
:1083D0000121FCF70DFC0A20FCF7E4FA2749487953
:1083E0000021FCF705FC10BD10B50446FFF7ECFEBC
:1083F00022488078082803D12046FFF7CAFE06E00D
:108400002046FFF7ACFEFFF7D6FF2007040E2046FC
:10841000FFF7A5FEFFF7CFFF10BD10B504461748C4
:10842000407817490978884201DD0A2C01D1FFF70D
:1084300093FF0A2C07D02046FFF7D6FF104800789C
:10844000401C0F49087010BD10B5044603E014F835
:10845000010BFFF7E2FF20780028F8D110BD2DE9CD
:10846000F04104460D4605480078A04200DC002497
:108470000C20FFF7F3FE00262AE00000C4CD072001
:1084800012C1072011C107200DC107202046FFF7A8
:10849000FEFE002705E0F119685CFFF7BEFF781CBF
:1084A000C7B2E2484078B84203DDF019285C0028E2
:1084B000F1D104E02020FFF7B0FF781CC7B2DB4801
:1084C0004078B842F6DCC820FCF779FA701CC6B2D6
:1084D000A85D0028DAD10C20FFF7C0FEBDE8F081CE
:1084E000FEB504460D4616460027022C13D10FE0B8
:1084F000711E01208840284201D0012000E00020A8
:10850000C7B207F13000C0B2FFF787FF701EC6B2D6
:10851000002EEDD13CE05DB9002704E03020FFF7EC
:108520007CFF781CC7B2B74232DA0A2FF6D32FE0AD
:10853000002714E04DB1B5FBF4F004FB1050C0B2BD
:108540000DF80700B5FBF4F507E0FF2E01D00A2E69
:1085500000D906E000200DF80700781CC7B2B7422A
:10856000E8DB00BF12E0791E1DF80110092904DDC7
:10857000791E1DF80110373103E0791E1DF8011036
:108580003031C8B2FFF749FF781EC7B2002FEAD1D9
:10859000FEBD70B5044620460BF09EFC0546FF224A
:1085A00029460A20FFF79CFF2E20FFF736FF2846BA
:1085B0000BF0D7FC064621460BF0E8FD04469C492B
:1085C00020460BF003FD06460BF086FC0546FF2215
:1085D00029460A20FFF784FF70BD0FB42DE9F04F44
:1085E00085B00FA804900E9CF8E094F800A0BAF1B2
:1085F000250F7DD1641C94F800A0BAF1300F17DB71
:10860000BAF1390F14DC4FF0000B0AE0AAF1300088
:108610000BEB8B0100EB410000F0FF0B641C94F8A6
:1086200000A0BAF1300F05DBBAF1390FEEDD01E041
:108630004FF0FF0BBAF1580F7ED017DCBAF1440FA0
:1086400047D009DCBAF1250F68D0BAF1420F70D0DB
:10865000BAF1430F2BD121E0BAF1460F6AD0BAF13B
:10866000530F68D0BAF1550FF4D14CE0BAF1660F50
:108670007BD009DCBAF1620F68D0BAF1630F0ED07B
:10868000BAF1640FE6D113E0BAF1730F6ED0BAF10C
:10869000750F2ED0BAF1780FDCD140E000BF0498FE
:1086A00002C801F0FF0A04905046FFF7B6FE90E0C2
:1086B000049802C80DB20490002D04DA684205B295
:1086C0002D20FFF7AAFE5A4629460A20FFF708FF89
:1086D0007FE0049840C80490002E03DA76422D20F3
:1086E000FFF79BFE5A4631460A20FFF7F9FE70E07D
:1086F00070E0049802C88FB204905A4639460A20A6
:10870000FFF7EEFE65E0049850F8048B04905A469B
:1087100041460A20FFF7E4FE5BE00DE055E00498D7
:1087200002C88FB204905A4639461020FFF7D8FE8F
:108730004FE01CE02AE03FE0049850F8048B0490DE
:108740005A4641461020FFF7CBFE42E0049802C88B
:108750008FB20490BBF1FF0F01D14FF0100B5A46BE
:1087600039460220FFF7BCFE33E010E025E0049814
:1087700050F8048B0490BBF1FF0F01D14FF0100BA8
:108780005A4641460220FFF7ABFE22E000BF0498A4
:10879000C01D20F007000146049000684968CDE93B
:1087A0000201049808300490DDE902010AF0D2F8D1
:1087B0000190FFF7EEFE0CE000BF049850F8049B18
:1087C00004904846FFF740FE03E02520FFF725FE12
:1087D00000BF02E05046FFF720FE641C207800280E
:1087E0007FF403AF05B0BDE8F00F5DF814FB70B582
:1087F00004460D4604F00704402141EAC400FFF797
:108800002DFD002603E0A85DFFF7EEFD761C082E87
:10881000F9DB70BD70B504460D4616462946204664
:10882000FFF7B3FD3046FFF7DFFD70BDC4CD072075
:108830000000C84210B5202801D2034601E0A0F193
:1088400020031A46202810D2444B1C68032393406F
:108850009C43434BC3F8A841404B1C6801FA02F308
:108860001C433F4BC3F8A84111E03C4B1B1D1C6847
:10887000032393409C433A4BC3F8AC41374B1B1D39
:108880001B6801FA02F42343354CC4F8AC3110BD27
:108890000146202903D20A46304B186804E0A1F1B2
:1088A00020022E4B1B1D186820FA02F303F0030070
:1088B000704770B504462B4805682046FFF7E8FF6F
:1088C000064636B1012E06D0022E06D0032E08D160
:1088D00005E0042605E0012603E0022601E0082663
:1088E00000BF00BFB5FBF6F5284670BD012909D1D0
:1088F0001B4AC43213681C4A02401343184AC2F888
:10890000C43009E041B9164AC4321368164A82439A
:108910001340134AC2F8C430704700201049C031D8
:10892000086030BF704704201049086008200C49D7
:10893000C1F8C00030BF704704200C49086009200E
:108940000749C1F8C00030BF7047042007490860DC
:1089500003200349C1F8C00030BF7047A8C10F40D1
:1089600000C00F4000C00720DEF7EFEF10ED00E081
:108970002DE9F04104460D460026002724B1012CC4
:1089800012D0022C5FD14EE05E4EB010B6FBF0F07C
:10899000A90800FB01F7FF2F05D300BFB005476012
:1089A0000120BDE8F0814FE057480068860857482D
:1089B000B6FBF0F0A90800FB01F7FF2F09D300BFB9
:1089C00000210846FFF736FF4FF080404760012046
:1089D000E7E74D48006846084C48B6FBF0F0A908A8
:1089E00000FB01F7FF2F09D300BF02210020FFF792
:1089F00021FF4FF0804047600120D2E742480668DF
:108A00004248B6FBF0F0A90800FB01F7FF2F09D39D
:108A100000BF01210020FFF70DFF4FF080404760AD
:108A20000120BEE710E04FF400463848B6FBF0F0F6
:108A3000A90800FB01F7FF2F04D300BFF003476034
:108A40000120AEE700E000BF00BF0020A9E770B53D
:108A500004460D4600210846FFF7ECFE4FF080402B
:108A6000006920F003004FF080410861084600696A
:108A700020430861012D04D10846007840F002002F
:108A8000087070BD72B6AA2041070872552008729E
:108A900062B6704770B505464FF08040046904F037
:108AA000030429462046FFF763FF4FF0804000781B
:108AB00040F001004FF080410870FFF7E3FF70BD08
:108AC0004FF080400078C0F3800070474FF0804046
:108AD000007820F004004FF080410870704770B5B6
:108AE00005464FF08040046904F0030429462046FF
:108AF000FFF73EFFFFF7C6FF70BD4FF08040C06834
:108B00007047000000093D0000C0072040420F00F0
:108B1000F94909780143F84A117070470146F6484F
:108B20000078084201D0012000E00020C0B2704768
:108B300000B50120FFF7F2FF10B10120FFF7E8FFB9
:108B40000120EE49086000BD10B50020EB49086027
:108B500001214802FFF7CAFEE7485C30007810F0B8
:108B6000100F07D0E4485C30007840F01000E24974
:108B700081F85C000020E0490874087008720873EE
:108B800008640846007A40F00100087210BD012018
:108B9000D9490870022008737047D748007840F020
:108BA0000100D5490870002008737047D248007A48
:108BB00020F00100D0490872704710B50020CE495E
:108BC000087200214FF40070FFF790FE10BDCA48F4
:108BD000007A40F00200C84908720846007A00F0A6
:108BE000110008727047012806D1C349097A41F083
:108BF0000101C14A117205E0BF49097A01F0120171
:108C0000BD4A11727047012940D108283DD2DFE8E2
:108C100000F0040B121920272E35B74A127B42F0C0
:108C20000102B54B1A7330E0B34A127B42F00202E4
:108C3000B14B1A7329E0B04A127B42F00402AE4BEA
:108C40001A7322E0AC4A127B42F01002AA4B1A734C
:108C50001BE0A94A127B42F00802A74B1A7314E0EA
:108C6000A54A127B42F02002A34B1A730DE0A24AE0
:108C7000127B42F04002A04B1A7306E09E4A127B20
:108C800042F080029C4B1A7300BF40E008283DD29E
:108C9000DFE800F0040B121920272E35964A127BCC
:108CA00002F0FE02944B1A7330E0934A127B02F0FA
:108CB000FD02914B1A7329E08F4A127B02F0FB02EE
:108CC0008D4B1A7322E08C4A127B02F0EF028A4B22
:108CD0001A731BE0884A127B02F0F702864B1A7364
:108CE00014E0854A127B02F0DF02834B1A730DE019
:108CF000814A127B02F0BF027F4B1A7306E07E4A64
:108D0000127B02F07F027C4B1A7300BF00BF7047DA
:108D1000012940D108283DD2DFE800F0040B1219E8
:108D200020272E35744A127C02F0FE02724B1A7410
:108D300030E0714A127C02F0FD026F4B1A7429E098
:108D40006D4A127C02F0FB026B4B1A7422E06A4AF5
:108D5000127C02F0EF02684B1A741BE0664A127C28
:108D600002F0F702644B1A7414E0634A127C02F0BA
:108D7000DF02614B1A740DE05F4A127C02F0BF0201
:108D80005D4B1A7406E05C4A127C02F07F025A4B7B
:108D90001A7400BF40E008283DD2DFE800F0040B61
:108DA000121920272E35544A127C42F00102524BF0
:108DB0001A7430E0504A127C42F002024E4B1A7490
:108DC00029E04D4A127C42F004024B4B1A7422E017
:108DD000494A127C42F01002474B1A741BE0464A83
:108DE000127C42F00802444B1A7414E0424A127C8E
:108DF00042F02002404B1A740DE03F4A127C42F0D0
:108E000040023D4B1A7406E03B4A127C42F080025D
:108E1000394B1A7400BF00BF7047082848D2DFE8FA
:108E200000F0040C141C242D363F3B2904D801F01B
:108E30003F02314B20331A703AE03B2904D801F04D
:108E40003F022D4B24331A7032E0172904D801F069
:108E50001F02294B28331A702AE0062904D801F092
:108E60000702254B30331A7022E01F2905D821B1A3
:108E700001F01F02204B2C331A7019E031B1B1F50B
:108E8000B77F03D8C1F308021B4B9A8610E031B1BB
:108E90000C2904D801F00F02174B38331A7007E081
:108EA000B1F5805F03D2C1F30B02134B9A8700BF69
:108EB00000BF70470146082939D2DFE801F0040AF3
:108EC000101621262C320C482030007800F03F008C
:108ED000704709482430007800F03F00F8E7064862
:108EE0002830007800F01F00F2E7034830300078A7
:108EF00000F00700ECE700000040024014C107202A
:108F0000E848007800F01F00E2E7E6482C38808E41
:108F1000C0F30800DCE7E3480C30007800F00F00F5
:108F2000D6E7E0482C38808FC0F30B00D0E7002054
:108F3000CEE7C16801F01F01DA4A1170016901F042
:108F40000701121D11704169C1F30801D54A2C3A7D
:108F50009186816801F01F01D24A121F1170416889
:108F600001F03F01121F1170016801F03F01121F53
:108F70001170816901F00F01CA4A0C321170C16988
:108F8000C1F30B01C74A2C3A91877047C54909784C
:108F900001F01F01C160C349091D097801F00701F3
:108FA0000161C0492C39898EC1F308014161BD4975
:108FB000091F097801F01F018160BA490839097851
:108FC00001F03F014160B7490C39097801F03F01D8
:108FD0000160B4490C31097801F00F018161B14998
:108FE0002C39898FC1F30B01C161704708284AD21F
:108FF000DFE800F0040C141C242D37403B2904D872
:1090000001F03F02A74B34331A703CE03B2904D8EF
:1090100001F03F02A34B38331A7034E0172904D80B
:1090200001F01F029F4B3C331A702CE0062904D834
:1090300001F007029B4B44331A7024E01F2905D826
:1090400021B101F01F02974B40331A701BE039B178
:10905000B1F5B77F04D8C1F30802924B48331A80A8
:1090600011E031B10C2904D801F00F028D4B4C33C3
:109070001A7008E0B1F5805F04D2C1F30B02894B8E
:1090800050331A8000BF00BF70470146082935D20F
:10909000DFE801F0040A10161C22282E8148343023
:1090A000007800F03F0070477E483830007800F0CC
:1090B0003F00F8E77B483C30007800F01F00F2E703
:1090C00078484430007800F00700ECE775484030FD
:1090D000007800F01F00E6E7724848300088C0F3CF
:1090E0000800E0E76F484C30007800F00F00DAE746
:1090F0006C4850300088C0F30B00D4E70020D2E762
:10910000C16801F01F01674A40321170016901F026
:109110000701121D11704169C1F30801121D118070
:10912000816801F01F015F4A3C321170416801F013
:109130003F01121F1170016801F03F01121F1170F1
:10914000816901F00F01574A4C321170C169C1F3B6
:109150000B01544A2C3AA2F87C1070475149403117
:10916000097801F01F01C1604E494431097801F0CE
:10917000070101614B4948310988C1F30801416188
:1091800048493C31097801F01F0181604549383177
:10919000097801F03F01416042493431097801F01A
:1091A0003F0101603F494C31097801F00F018161B5
:1091B0003C4950310988C1F30B01C1617047012856
:1091C00008D138492C39097A01F00301354A2C3A83
:1091D000117207E033492C39097A41F01001314A04
:1091E0002C3A11727047B0F5003F0BD2421EC2F309
:1091F0001002012901D14B0400E000231A43294B3E
:109200002C3B1A647047274A183202EB8002116027
:1092100070470146234A183202EB810210687047FA
:109220000178204A0C3A11704178121D1170817832
:10923000121D1170C1781B4A121D11700179121F85
:1092400011704179174A0C321170C188154A2C3AB5
:109250009187704713492C3991F8201001701149FA
:109260002C3991F8241041700E492C3991F82810AE
:1092700081700C492C3991F83010C17009492C3992
:1092800091F82C10017107492C3991F8381041716F
:1092900004492C39898FC1807047024A2C3A1074D6
:1092A000704700002C40024013B582B0DDE9020196
:1092B00009F026FF0446204609F070FFCDE90001C1
:1092C000DDE9022309F0E4FE02D1012004B010BD63
:1092D0000020FBE72DE9FF4184B014461D46FC4EFB
:1092E0004FF0000849E0FB4951F828000AF0E6FB7E
:1092F000CDE90201DDE9042309F06CFF10D2F54944
:1093000051F828000AF0DAFBCDE90201DDE9042377
:109310000AF08CF9CDE9000109F01CFB07460FE0CB
:10932000EC4951F828000AF0C9FBCDE90201DDE95A
:1093300004230AF029FACDE9000109F00BFB0746E6
:10934000E34930460AF060FD14D0314638460AF051
:10935000E7FE0FD2A8F10100DF4951F8200020609C
:10936000A8F10100DD4951F820002860002008B074
:10937000BDE8F0813E4608F10108B8F1480FB2DBC4
:109380004FF0FF30F3E72DE9F04391B004460D466E
:1093900016461F46DDF86090284609F0FFFECDE92D
:1093A0000801CFA00CC8089809F04CFFCDE90601D0
:1093B000204609F0F3FECDE90401DDE9062309F0BA
:1093C00067FCCDE90E01C8A103C9CDE90C01DDE9B7
:1093D0000E01FFF769FF70B1DDE90E0109F090FEA3
:1093E0003060002038604FF07E50C9F80000002047
:1093F00011B0BDE8F0837DE0284609F0CFFECDE94D
:109400000801B7A00CC8089809F01CFFCDE90601B7
:10941000DDE90C2309F016FFCDE90401204609F02F
:10942000BDFECDE90201DDE9042309F031FCCDE9FF
:10943000000109F065FE8046404609F0AFFECDE927
:109440000801284609F0AAFECDE90601A4A00CC82F
:10945000069809F0F7FECDE90401DDE9082309F0DB
:10946000F1FECDE90201204609F098FECDE90001A8
:10947000DDE9022309F00CFCCDE90A019CA00CC82F
:10948000DDE90A010AF08EF807D89BA00CC8DDE9D7
:109490000A0109F09FFE00D22DE093A00CC8DDE97F
:1094A0000C0109F097FE13D895A00CC8DDE90C015A
:1094B0000AF06AF9CDE90C018DA00CC8DDE90C01B8
:1094C00009F088FE16D290A103C9CDE90C0111E084
:1094D0008BA00CC8DDE90C0109F086FACDE90C017E
:1094E00085A00CC8DDE90C010AF05CF802D84FF049
:1094F000FF307DE780E700BFC6F800804B463A4664
:10950000DDE90A01FFF7E6FE72E72DE9FF410446B7
:109510000D46042C54D27E480068C0F3811636B143
:10952000012E08D0022E09D0032E0FD10AE079486F
:10953000006887080AE07748076807E07548006810
:10954000470803E073480068C70800BF00BF01ABCD
:10955000009302AB03AA29463846FFF714FF03988D
:10956000C11700EB11610912A0EB01216A4A02EB5D
:10957000C402526811700398C11700EB1161090A07
:10958000654A02EBC4025268117102980AF06CFC41
:10959000804601980AF068FC48EA00105E4901EB39
:1095A000C401496881F828005B4800EBC4004068AA
:1095B000007B20F08000584901EBC4014968087322
:1095C000BDE8FF8170B504460D46042C2FD2524AE7
:1095D00002EBC4029178504A12F83400FBF7D2FA39
:1095E0004D4A02EBC40291784B4A02EBC402507818
:1095F000FBF7C8FA4648E4380068474901EBC40164
:10960000CA780121914008434449C1F8C4000720A9
:10961000414901EBC4014968087283203E4901EBCE
:10962000C4014968087329462046FFF76EFF70BDE4
:109630000146002004290DD200BF374A02EBC102C7
:109640005268127D12F0010FF7D0334A02EBC102CB
:10965000526810787047014600200022042916D273
:1096600012E005E02C4B03EBC1035B6818787047F0
:10967000294B03EBC1035B681B7D13F0010F02D084
:10968000274B9A42EED3521C254B9A42E9D3242011
:10969000EDE704280DD200BF1F4A02EBC00252685A
:1096A000127D12F0200FF7D01B4A02EBC002526865
:1096B0001170704710B504460B4604E013F8011B07
:1096C0002046FFF7E6FF18780028F7D110BD00000C
:1096D000000080BF28C1072048C2072068C30720B8
:1096E0000000000000003040000000000000F83FD3
:1096F0009A9999999999F13F666666666666FE3F02
:10970000FCA9F1D24D62503F71AC8BDB6800F83F91
:10971000A8C10F4000C007205446010000C00F4000
:109720002049690070B503460C46002618E018462B
:10973000FFF77EFF054629461846FFF7AAFF0D2DC5
:1097400001D00A2D03D15EB10020A05509E0082DFB
:1097500003D116B1701EC6B202E0A555701CC6B288
:10976000E5E700BF304670BDFEB504460D4616461F
:109770000027022D14D110E0591E012088403042EC
:1097800001D0012000E00020C7B207F13000C1B2D3
:109790002046FFF77EFF581EC3B2002BECD136E007
:1097A00026B930212046FFF774FF30E0002714E08F
:1097B0004EB1B6FBF5F005FB1060C0B20DF8070026
:1097C000B6FBF5F607E0FF2B01D00A2B00D906E027
:1097D00000200DF80700781CC7B29F42E8DB00BFED
:1097E00013E0781E1DF80000092804DD781E1DF81E
:1097F0000000373003E0781E1DF800003030C1B2A1
:109800002046FFF746FF781EC7B2002FE9D1FEBD04
:109810002DE9F04104460D4628460AF05DFB064658
:10982000FF2332460A212046FFF79EFF2E212046C5
:10983000FFF72FFF30460AF094FB074629460AF04F
:10984000A5FC0546FF4928460AF0C0FB07460AF07A
:1098500043FB0646FF2332460A212046FFF784FFDA
:10986000BDE8F0810FB42DE9F04F85B0044610A893
:1098700004900F9D20E195F800B0BBF1250F72D147
:109880006D1C95F800B0BBF1300F18DBBBF1390F40
:1098900015DC002002900BE0ABF13000029901EBE7
:1098A000810100EB4100C0B202906D1C95F800B040
:1098B000BBF1300F05DBBBF1390FEDDD01E0FF201F
:1098C0000290BBF1580F6FD017DCBBF1440F4BD0A7
:1098D00009DCBBF1250F68D0BBF1420F73D0BBF19F
:1098E000430F2CD121E0BBF1460F6DD0BBF1530FDC
:1098F0006BD0BBF1550FF4D158E0BBF1660F71D0BE
:1099000009DCBBF1620F7DD0BBF1630F0ED0BBF160
:10991000640FE6D114E0BBF1730F72D0BBF1750F89
:1099200036D0BBF1780FDCD150E000BF049802C8FC
:1099300001F0FF0B049059462046FFF7AAFEB5E060
:10994000049802C80FB20490002F05DA784207B2DB
:109950002D212046FFF79DFE3A460A212046029B14
:10996000FFF702FFA2E0A2E0049850F8048B0490F5
:10997000B8F1000F05DAC8F100082D212046FFF7E5
:1099800088FE42460A212046029BFFF7EDFE8DE04D
:10999000049802C81FFA81F904904A460A21204619
:1099A000029BFFF7E1FE81E01EE07AE00498006888
:1099B00003900498001D04900A212046DDE902323C
:1099C000FFF7D2FE72E02EE03FE060E0049802C8AC
:1099D0001FFA81F904904A4610212046029BFFF7A6
:1099E000C3FE63E032E00DE0049800680390049841
:1099F000001D049010212046DDE90232FFF7B4FE7D
:109A000054E045E0049802C81FFA81F904900298D6
:109A1000FF2801D1102002904A4602212046029BD5
:109A2000FFF7A2FE42E00498006803900498001D2E
:109A300004900298FF2801D11020029002212046B4
:109A4000DDE90232FFF790FE30E000BF0498C01D50
:109A500020F007000146049000684968CDE9000144
:109A6000049808300490009808F074FF064600211E
:109A700030460AF07BFA05D286F000462D212046BA
:109A8000FFF707FE31462046FFF7C2FE0EE000BF9B
:109A9000049850F804AB049051462046FFF70AFEA4
:109AA00004E025212046FFF7F4FD00BF03E05946FE
:109AB0002046FFF7EEFD6D1C287800287FF4DBAE12
:109AC00005B0BDE8F00F5DF814FB30B500BF5E4B8C
