:020000040000FA
:1000000050D80720D9010000DD010000DF01000009
:10001000E1010000E3010000E50100000000000034
:10002000000000000000000000000000E7010000E8
:10003000E901000000000000EB010000A702000041
:10004000EF010000EF010000EF010000EF010000F0
:10005000EF010000ED6A0000436A0000EF010000BC
:10006000976B0000EF010000EF010000EF010000BE
:10007000EF010000EF010000EF010000EF010000C0
:10008000EF010000A95A0000E70B0000070C000078
:10009000270C0000470C0000EF010000617E00000B
:1000A000EF010000EF010000EF010000EF01000090
:1000B000EF010000EF010000EF010000EF01000080
:1000C000EF010000EF010000EF01000000F002F876
:1000D00000F074F80AA090E8000C82448344AAF16E
:1000E0000107DA4501D100F069F8AFF2090EBAE86C
:1000F0000F0013F0010F18BFFB1A43F0010318475C
:10010000181F0200481F020010F8013B0A4413F0B8
:10011000030408BF10F8014B1D1108BF10F8015B64
:10012000641E05D010F8016B641E01F8016BF9D153
:10013000002D15D010F8014B03F00C030C2BA1EB94
:1001400004040ABF10F8013BA4EB8314A4EB0324BE
:1001500005F1010314F8016B5B1E01F8016BF9D581
:10016000914238BF10F8013BD1D3704700230024DF
:1001700000250026103A28BF78C1FBD8520728BFB7
:1001800030C148BF0B60704764290FF04582632976
:100190000FF0618573290FF06685002070471FB549
:1001A000AFF300800FF0D4FE04000020002111F016
:1001B0006FF8401C60601FBD10B510BD0FF0A2FEAF
:1001C0001146FFF7ECFF0AF0EAFD0FF0D7FEFFF74C
:1001D000F3FF0FF019FF000008480047FEE7FEE7B5
:1001E000FEE7FEE7FEE7FEE7FEE7FEE7FEE7FEE7E7
:1001F00003480449024A044B70470000CD00000048
:1002000050D6072050D8072050D6072000220021C2
:1002100000BF05E0002100E0491C0629FCD3521C68
:100220008242F7D3704730B50546002404E04FF40E
:100230007A70FFF7EBFF641CAC42F8D330BD30B5E9
:100240000546002404E04FF47A70FFF7ECFF641CCD
:10025000AC42F8D330BD00001A484FF0E0214861AD
:10026000704707204FF0E0210861704700204FF0F1
:10027000E02108617047144908607047134800681E
:1002800070474FF0E02189690E4A653A511A64229D
:10029000B1FBF2F10D4A126802EB4203C3EBC2124A
:1002A00001EBC200704710B508480068401C0749C0
:1002B00008600548006810B103480068804708F0EE
:1002C0000CFB10BD0487010090C507208CC50720DA
:1002D0000FB409491CB506AB6A46794400900598ED
:1002E0000FF097FC0446002069460FF0A5FC20465D
:1002F0001CBC5DF814FB00005BF90000FFFFFFFF72
:1003000077480068C0F30160032860D174488430E6
:10031000006810F0030006D0012820D0022839D050
:10032000032853D100E000BF6D480068C0F30E0001
:10033000401C41006B48414369488838D0F8880028
:10034000C0F30740401CB1FBF0F165487C30006809
:10035000C0B2401CB1FBF0F06349086036E0604871
:100360000068C0F30E00401C4100604841435C48F7
:100370008838D0F88800C0F30740401CB1FBF0F18A
:1003800057487C300068C0B2401CB1FBF0F05649C1
:1003900008601BE052480068C0F30E00401C41009A
:1003A0004FF4FA4041434E488838D0F88800C0F3F3
:1003B0000740401CB1FBF0F149487C300068C0B2F6
:1003C000401CB1FBF0F04849086000BF30E04448F1
:1003D0008430006810F0030006D0012810D00228F5
:1003E00019D0032823D100E000BF3D487C300068CD
:1003F000C0B2401C3B49B1FBF0F03B49086016E03D
:1004000037487C300068C0B2401C3849B1FBF0F07E
:10041000354908600BE032487C300068C0B2401CAF
:100420004FF4FA41B1FBF0F02F49086000BF00BF64
:10043000704700202E49086000BF032028497C3106
:100440000860002026498839C1F80C012948244950
:10045000091F0860AA202249091D0860552008606C
:1004600001201F4908390860AA201D49091D08609C
:1004700055201B498839C1F88C0000BF1848006816
:1004800010F0806FFAD00320154908390860AA20BF
:1004900013498839C1F88C0055201149091D08609D
:1004A00000BF0F48006810F0407FFAD000200C49D0
:1004B000803108600A498839C1F8A8010C490C311B
:1004C00008600D4806493C31086000200849283181
:1004D000086043F23A00024988390860704700001A
:1004E00088C00F4000093D0000C00720001BB70076
:1004F000A0C10F40630005001A930002784A1268F9
:10050000C2F3811131B1012908D0022909D0032990
:100510000FD10AE0734A126890080AE0714A106825
:1005200007E0704A1268500803E06E4A1268D0086B
:1005300000BF00BF704710B56948E438006840F458
:1005400080506949C1F8C400FFF7D8FF04466748E6
:10055000B4FBF0F0401E040244F40010644908604B
:1005600010BD70B50546082D24D2624A02EB450243
:100570005178604A12F8150000F07CFB5C48006876
:1005800020F0FF000121A9400843594908600A20D2
:10059000FFF73CFE5648006840F080705449086000
:1005A00000BF53484068C00FFBD051484068C0F3BB
:1005B0000B1400E00024204670BD00B587B0002079
:1005C000FFF7CFFF4C4908600846006811F09AFA1F
:1005D000CDE9040149A00CC8049811F0E7FACDE96F
:1005E000020148A00CC8029811F006F8CDE90001FC
:1005F00010F064FE454908600846006811F012FFDB
:10060000CDE9040142A00CC8049811F0CFFACDE95D
:1006100002013AA00CC8029810F0EEFFCDE90001EB
:1006200010F04CFE3C4908601E20FFF7FCFD012045
:10063000FFF797FF394908600846006811F062FA31
:10064000CDE904012DA00CC8049811F0AFFACDE952
:1006500002012CA00CC8029810F0CEFFCDE90001D9
:1006600010F02CFE2E4908600846006811F0DAFEF2
:10067000CDE904012BA00CC8049811F097FACDE93C
:1006800002011EA00CC8029810F0B6FFCDE90001CF
:1006900010F014FE25490860022225491E48006812
:1006A00000F027F9022223492048006800F021F9D0
:1006B0001E48006811F0B6FECDE904011648006836
:1006C00011F0B0FECDE90201DDE90401CDE9000140
:1006D00019A10220DDE9022306F080F807B000BD71
:1006E000A8C10F4000C0072000C00F4040420F00CB
:1006F00000400340A62D010004C007206666666620
:1007000066660A400000000000FEAF400CC00720F3
:100710007B14AE47E13A354014C0072008C00720DB
:1007200010C0072052B81E85EB71434018C0072047
:100730001CC0072022C00720426174746572793A98
:100740002532662020506F7765723A253266200A7E
:100750000D00000030B500224C1E05E0835C055DF5
:1007600085540355521C641EA242F7DB30BDF0B520
:1007700004460D46174600260CE00A2094FBF0F1D3
:1007800000FB11403030C2B23046761C2A540A2099
:1007900094FBF0F4002CF0D103E030223046761CBC
:1007A0002A54BE42F9DB31462846FFF7D3FF00202A
:1007B000A8553046F0BD2DE9F0478AB004460D46F5
:1007C0001646204612F004F88146484612F064F8B6
:1007D0008246214612F08EF90746022229464846F3
:1007E000FFF7C5FF8046002E2FD02E2005F8080009
:1007F000304611F087F90B460246CDE90801B2A058
:1008000003C810F02DF8CDE90601384611F00AFEB4
:10081000CDE90401DDE9062311F0C8F9CDE90201B3
:10082000ABA00CC8029810F093FDCDE9000110F0C8
:1008300045FD0746384611F0CBFF824605EB080020
:10084000411C32465046FFF792FF0AB0BDE8F087E0
:100850000146002011E00A78302A08DB0A78392A9C
:1008600005DC00EB800250000A78303A1044491C45
:100870000A782E2A01D100220A700A78002AEAD1C9
:1008800070472DE9F047044600274FF07E58207846
:100890002D2802D1641CDFF84082002520E020785A
:1008A0002E2801D101251AE02078A0F13006002E73
:1008B00014DB092E12DC25B18849404611F066FE92
:1008C0008046304611F0E8FF81468449384612F0F0
:1008D00031F88246494611F0CDFD074600BF641C41
:1008E00020780028DBD14146384612F023F8BDE8D5
:1008F000F0872DE9F74F84B004461546204611F0E5
:1009000067FF06460027B846002003904FF0010914
:1009100002900021204611F0DDFF0BD26E492046E7
:1009200012F008F804462D20039A0599885403987C
:10093000401C03900021204611F01AFF05D04FF013
:100940007E51204611F0C6FF06D23021059A039849
:1009500011540398401C039004E00A2096FBF0F623
:1009600008F10108002EF8D137E0B8F1010F02D1EB
:100970004FF001090CE00220029006E009EB89002B
:100980004FEA40090298401C029002984045F5DD6C
:10099000484611F081FF82460146204611F0F6FDDF
:1009A0000746384611F014FF00FB09FB584611F0CA
:1009B00073FF8246214612F09DF80446384611F036
:1009C00007FF3030C2B2059903980A540398401CBF
:1009D0000390A8F101084FF00109B8F1000FC4D14C
:1009E0002E20039A059988540398401C03904FF0D9
:1009F00000080120029006E009EB89004FEA400957
:100A00000298401C02900298A842F5DD484611F079
:100A100043FF0190204611F0DBFE009011F03CFFF7
:100A20008346214612F066F88246019911F082FF52
:100A300007463C46204611F0CBFE064600274FF005
:100A40000109A84636E0B8F1010F02D14FF00109C3
:100A50000CE00220029006E009EB89004FEA400911
:100A60000298401C029002984045F5DD484611F07E
:100A700013FF82460146204611F088FD074638469E
:100A800011F0A6FE00FB09FB584611F005FF824657
:100A9000214612F02FF80446384611F099FE303006
:100AA000039A059988540398401C0390A8F1010803
:100AB0004FF00109B8F1000FC5D10020039A059944
:100AC000885407B0BDE8F08F00000000000024400B
:100AD000000000000000E03F000080BF0000204157
:100AE00070B504460D461646042C6BDA5E4901EBE0
:100AF000C4014879012100F0BDF85B4901EBC40154
:100B000091F9040000F01F020121914042094FF0C9
:100B1000E02303EB8202C2F8001100BF524840F804
:100B2000345036B1012E16D0022E26D0032E48D1D5
:100B300035E04E4801680120A04081434C48C0F890
:100B400048114A48001D01680120A04081434848DF
:100B5000C0F84C1135E0454801680120A0408143B0
:100B60004348C0F848114148001D01680120A040D9
:100B700001433F48C0F84C1123E03C480168012084
:100B8000A04001433A48C0F848113848001D0068A9
:100B90000121A14088433649C1F84C0111E0334896
:100BA00001680120A04001433148C0F848112F4896
:100BB000001D01680120A04001432D48C0F84C11E0
:100BC00000BF00BF70BD10B50446042C0ADA2649E8
:100BD00001EBC4014879002100F04CF800202249C3
:100BE00041F8340010BD10B520480838006840F0C6
:100BF00001001F49C1F840011B48006810B11A49A3
:100C00000868804710BD10B518480838006840F0E3
:100C100002001749C1F840011348806810B1124919
:100C20008868804710BD10B510480838006840F04B
:100C300004000F49C1F840010B48006910B10A498E
:100C40000869804710BD10B508480838006840F0B2
:100C500008000749C1F840010348806910B1024902
:100C60008869804710BD000028C0072048C10F4098
:100C700000C00F4030B5A0281BDA032919D8431152
:100C800000F01F005B00102804DB5C1CE3B2A0F145
:100C90001004E0B24406200E474C04EB8302032507
:100CA00085401468AC43146001FA00F514682C43C5
:100CB000146030BD30B5A02811DA421100F01F00D9
:100CC0003E4C04EB421329B11C68012585402C439E
:100CD0001C6004E01D6801248440A5431D6030BDF4
:100CE00030B5A02811DA421100F01F00334C04EB9C
:100CF000421329B19C69012585402C439C6104E085
:100D0000DD69012484402543DD6130BD10B5A02894
:100D10000ADA411100F01F00284B03EB411254691D
:100D2000012383405C40546110BD30B50146002072
:100D3000A0290EDA4A1101F01F01204C04EB4213E6
:100D40005D6901248C40254201D0012400E000248B
:100D5000E0B230BDF0B50B464400174D40351946A2
:100D6000102B01D3103B641C55F824604FEA430C50
:100D7000032707FA0CF7BE4345F8246055F82460B2
:100D80005F0002FA07F73E4345F82460F0BD30B536
:100D9000094B6833012A07D153F8204001258D40C3
:100DA0002C4343F8204006E053F8204001258D40B5
:100DB000AC4343F8204030BD00C0024000C00920D1
:100DC000FC480068401CFB490860FB480068401C68
:100DD000F949086070471CB5F8A1022005F0FEFC37
:100DE000FC48FDA10CC8022005F0F8FC002005F02D
:100DF000CCF9044611F016FB0B460246CDE9000182
:100E0000FBA1022005F0EAFC002005F0BEF9044633
:100E100011F008FBCDE90001EE480CC8009810F075
:100E200097FAFA4A03C2F948F9A10CC8022005F062
:100E3000D5FCF64803C810F041FA04460222FB49EB
:100E4000FFF7B9FCF94AFAA1022005F0C7FCEF4808
:100E500003C810F033FA04460146002005F08FF96C
:100E6000EA48FBA206CA06C01CBD1FB5D1480068EF
:100E700010F05EFECDE90201F7A00CC8029810F058
:100E800095FECDE90001F6480CC8009810F060FA14
:100E9000F34A03C2CF49083A05CA05C1F04803C85E
:100EA00010F00CFA04460222EE49FFF784FCED4BE9
:100EB000C0480268ECA1022005F090FCFFF78BFF10
:100EC0000020BC490860E648E1A206CA06C000202E
:100ED000B9490860EC48DEA206CA06C01FBD1CB5B1
:100EE000EAA1022005F07AFCBA48F0A10CC8022061
:100EF00005F074FC012005F048F9044611F092FA5F
:100F00000B460246CDE90001EEA1022005F066FC89
:100F1000012005F03AF9044611F084FACDE9000108
:100F2000AC480CC8009810F013FAED4A03C2EC4824
:100F3000ECA10CC8022005F051FCE94803C810F0F0
:100F4000BDF904460146012005F019F9E448C0A2A4
:100F500006CA06C01CBD10B588B0684604F0D2FFB2
:100F6000029808280FD1019815280CD1A748B8A2DB
:100F700006CA06C0083803C810F0A0F904460146A6
:100F8000002005F0FCF808B010BD10B58AB002A82A
:100F900004F0B8FF022005F0F8F8044611F042FA18
:100FA0000B460246CDE90001D5A1022005F016FC52
:100FB000022005F0EAF804464FF07E5111F0D8FB0C
:100FC00023D10498082820D3039815281DD38F48CF
:100FD0009FA206CA06C0083803C810F06FF904467D
:100FE0000146002005F0CBF8884803C810F066F9E8
:100FF00004460146022005F0C2F8C8A1022005F00F
:1010000015FB0021022005F0BAF80AB010BD2DE949
:10101000F0410446002765E0C64800682044B84215
:101020000CD80020C4490870C24908600220C34996
:101030000870C3A105F0FAFABDE8F081BF48007856
:10104000042809D10020C5490870881E00210170BC
:1010500041700020B9490870C1480EF054FC0646A2
:10106000002E3BD00120FFF7DEF87F1CBC480EF0BD
:101070004AFCB04232D100252BE00122B749491E7B
:10108000481E0EF0A5FCB648405DB449891E487064
:101090000222B4A1B148801E0EF0EFFBB8B9AF48F0
:1010A0000078401CC1B2AD480170A3480078801C94
:1010B00081420CD10020A04908709E49086001209F
:1010C0009E490870A649022005F0B0FAB4E7681CF2
:1010D00085B2B542D1D30020A04908700120FFF7A6
:1010E000A2F87F1C98E710B50446042093490870C5
:1010F00000BF2046FFF78BFF904800780028F8D00B
:1011000010BD10B59F2196480EF09FFC0020964917
:10111000086010BD70B504460D46FFF7F2FFC82009
:10112000FFF781F82846FFF7DEFF844800780228A1
:1011300006D021468A480EF069FB08B1012070BD37
:101140000020FCE770B504460D461646FFF7D9FFB0
:101150001420FFF768F83046FFF7C5FF774800789E
:10116000022804D021467E480EF050FB20B92946C3
:101170007B480EF04BFB08B1012070BD0020FCE75E
:1011800070B504460D4616462146022005F04EFA7B
:101190000FA1022005F04AFA2146012005F046FA87
:1011A0000D21012005F031FA31462846FFF7B2FF44
:1011B00070BD0000D8C00720DCC007200A0D496EB2
:1011C0002066756E6374696F6E2032342068720A0F
:1011D0000D000000C8C007200A0D74656D705F72B5
:1011E00061696E203A202566206D6D0A0D000000B1
:1011F0000A0D5254435F5265616447505245472877
:101200003029203A2025660A0D000000C0C00720C2
:101210000A0D546F74616C204461696C79205261CD
:10122000696E203A2025660A0D0000007DC0072067
:101230000A0D546F74616C204461696C7920787870
:1012400078205261696E203A2025730A0D00000053
:101250000000000000000000000000000000D03F7F
:10126000B0C007206DC007204E6F2E6F66207469D6
:1012700070733A2564205261696E46616C6C3A2540
:1012800073206D6D0A0D0000B8C00720200A0D49BB
:101290006E2066756E6374696F6E20596561726C3D
:1012A000795F5261696E0A0D00000000200A0D741A
:1012B000656D705F7261696E203A202566206D6DE4
:1012C0000A0D0000200A0D5254435F5265616447C5
:1012D00050524547283129203A2025660A0D000042
:1012E000D0C00720200A0D546F74616C20596561CD
:1012F000726C795F5261696E203A2025660A0D0092
:10130000200A0D5254435F5265616447505245476D
:10131000283229203A2025660A0D00005254432025
:101320003220696E7369646520746865206C6F6F24
:10133000700D0A0094C0072090C007200CC1072040
:101340004D4F44454D20524553504F4E5345205428
:10135000494D454F55540D0A00000000FBC00720C1
:1013600072CE07200D0A000020C1072010B56420AE
:10137000FEF759FFF0A1022005F058F9F2A1012073
:1013800005F054F94FF47A71F2A0FFF7C3FEF2A111
:10139000022005F04BF910BD10B5F4A1022005F0B4
:1013A00045F9F8A1022005F041F9FAA1012005F064
:1013B0003DF940F6B831E7A0FFF7ACFE0446C8207F
:1013C000FEF731FF44B101213520FFF789FCF4A17C
:1013D000022005F02BF903E0F8A1022005F026F920
:1013E00010BD10B504F00AFBE5A1022005F01EF9BE
:1013F000FEA1022005F01AF9FCA1012005F016F962
:10140000FD49D4A0FFF786FE10BD10B5DCA1022077
:1014100005F00CF9F9A1022005F008F9F7A1012067
:1014200005F004F940F6B831CAA0FFF773FE10BD0D
:101430002DE9F04704460D4616460027B8463A21E6
:1014400020460EF0D9F900F1020908E03846791C6F
:10145000CFB219F800002C2801D1701EC6B21EB1FF
:1014600019F807000D28F1D109E03846791CCFB2F0
:1014700019F800204046411C01F0FF082A5419F8D1
:1014800007002C2803D019F807000D28EDD1002003
:1014900005F80800BDE8F0872DE9F04F89B0044653
:1014A00000200890079005A800210A4606C00020E9
:1014B00004901021D4480EF0C8FA1021D3480EF041
:1014C000C4FA0821D2480EF0C0FA0222D1492046BF
:1014D000FFF7AEFF0222CF4908A80EF0FFFA022262
:1014E000CC49891C07A80EF0F9FA0422C949491D04
:1014F00005A80EF0F3FA05A8FFF7AAF9029011F07B
:10150000CBF98346C44911F041F8814607A8FFF79B
:101510009FF9834611F0C0F98246494610F0AAFFB0
:101520008046BE4911F032F8064608A8FFF790F948
:10153000804611F0B1F90746314610F09BFF039049
:101540000322B4492046FFF773FFB24800785328BE
:1015500004D1B349039811F0EDF903900422AD4989
:101560002046FFF765FF0322AA4908A80EF0B6FA45
:101570000222A849C91C07A80EF0B0FA0422A54906
:10158000891D05A80EF0AAFA05A8FFF761F90290D7
:1015900011F082F98346A04910F0F8FF814607A8B0
:1015A000FFF756F9834611F077F98246494610F065
:1015B00061FF8046994910F0E9FF064608A8FFF749
:1015C00047F9804611F068F90746314610F052FF9E
:1015D000054605228F492046FFF72AFF8D480078EF
:1015E000572804D18E49284611F0A4F90546062251
:1015F00088492046FFF71CFF864904A80EF018F919
:1016000004A8FFF725F98749086007228149204689
:10161000FFF70EFF02227F4983480EF05FFA09228E
:101620007C492046FFF704FF07227A4978480EF0EC
:1016300055FA042274490398FFF75BF904227349B1
:101640002846FFF756F9724B774ACDE900236F4BD6
:101650006D4A76A1022005F0C1F809B0BDE8F08F0F
:1016600010B503F0E0FD002003F0CDFD7EA003F0F7
:1016700070FF43A1022004F0D9FF7EA1022004F0F4
:10168000D5FF7CA1012004F0D1FF40F6B83131A094
:10169000FFF740FD40F6B830FEF7C5FD05241DE01C
:1016A00004F0ACF979A1022004F0C0FF77A1012079
:1016B00004F0BCFF40F6B83179A0FFF72BFD38B13C
:1016C0007A48FFF7E9FE5748006808B1012010BDCD
:1016D0004FF47A70FEF7A7FD601EC4B2002CDFDC69
:1016E00073A149480EF0A4F871A148480EF0A0F883
:1016F0006FA147480EF09CF86DA14B480EF098F88A
:101700000020E4E770B5054604F078F91CA102203A
:1017100004F08CFF67A1022004F088FF65A101207E
:1017200004F084FF40F6B83165A0FFF7F3FC08B978
:10173000032070BDCAE0000041542B51504F574464
:101740003D300D0A0000000041542B51504F5744CA
:101750003D300D004F4B00004D6F64756C6520509F
:101760006F77657220446F776E0D0A004D4F4455B8
:101770004C452053455420534C4545502E2E2E2E7B
:101780000D0A000041542B5153434C4B3D310D0A7F
:101790000000000041542B5153434C4B3D310D0090
:1017A0004D4F44554C452053455420544F204944F7
:1017B0004C452053544154450D0A00004D4F4455AB
:1017C0004C452053544C4C20494E204143544956DB
:1017D000452053544154452C204E4F5420534554DA
:1017E00020544F20534C4545500D0A0041542B5175
:1017F000494143543D310D00C0D4010041542B51A7
:10180000475053454E440D0018C8072028C80720EC
:1018100062C00720E8CC072000401C460000704250
:10182000000080BF08C107206AC007204C617469AE
:10183000747564653A257320204C6F6E6769747502
:1018400064653A257320536174656C6C69746556E0
:101850006965773A257320416C7469747564653ADB
:1018600025730A0D0000000052656164204E4D454D
:10187000412E2E0041542B514750534346473D22A1
:101880006E6D6561737263222C310D0041542B51D2
:10189000475053474E4D45413D22474741220D0099
:1018A0002B51475053474E4D45413A0072CE0720C9
:1018B0004E41000041542B514750533F0D00000052
:1018C0002B514750533A2030000000004FF4FA707B
:1018D000FEF7A9FCAFF25811022004F0A7FE022483
:1018E0000FE04FF4FA62AFF29411FFA0FFF748FC4B
:1018F00008B1012070BD4FF4FA70FEF794FC601E31
:10190000C4B2002CEDDCC820FEF78DFC0020F1E70E
:1019100010B504F073F8AFF29811022004F086FEBF
:10192000F4A1022004F082FEF2A1012004F07EFE68
:1019300049F64041AFF2E410FFF7ECFB10BD10B5E3
:101940000224C8E040F6B832AFF2F811EDA0FFF77C
:1019500017FC00287CD03220FEF765FCEBA1EE4896
:101960000DF054FF00282AD0ECA1EF480DF04EFFF7
:1019700018B1EAA0ED49086014E0EDA1EA480DF0C5
:1019800045FF18B1EAA0E94908600BE0EAA1E64882
:101990000DF03CFF18B1E8A0E449086002E0DFA0C8
:1019A000E249086003F03FFCE4A003F0D2FDDF4809
:1019B000E7A10268022004F011FF012010BDE9A197
:1019C000D5480DF023FF002818D0E8A1D6480DF027
:1019D0001DFF18B1E5A0D549086002E0E7A0D34992
:1019E000086003F020FCE9A003F0B3FDCF48D8A1C4
:1019F0000268022004F0F2FE0120DFE7E8A1C648F9
:101A00000DF004FF78B1E8A0C849086003F00BFCB2
:101A1000E8A003F09EFDC548CDA10268022004F0B5
:101A2000DDFE0120CAE7E7A1BB480DF0EFFE80B163
:101A3000E6A0BE49086003F0F6FBE6A003F089FDCE
:101A4000BA48C3A10268022004F0C8FE0120B5E72D
:101A50003FE0E4A1B0480DF0D9FE78B1E3A0B3496E
:101A6000086003F0E0FBE4A003F073FDAF48B8A109
:101A70000268022004F0B2FE01209FE7E4A1A6481C
:101A80000DF0C4FE78B1E3A0A849086003F0CBFBD9
:101A9000E2A003F05EFDA548ADA10268022004F0BB
:101AA0009DFE01208AE7AFF2F810A049086003F01C
:101AB000BAFBDFA003F04DFD4FF47A70FEF7B3FBE5
:101AC00003F0B1FBDFA003F044FDE2A1022004F02B
:101AD000ADFD601E84B2002C3FF734AFAFF2302072
:101AE0009249086003F09FFBE1A003F032FD4FF440
:101AF0007A70FEF798FB03F096FBD2A003F029FD65
:101B0000D4A1022004F092FD4FF4FA60FEF78BFBA3
:101B1000002053E77FB50024002500260F24ECE2C7
:101B200040F6B832AFF2D431D5A0FFF729FB002838
:101B30007ED00A20FEF777FBD3A177480DF056FE42
:101B4000D2490860D0A100200DF050FECF490860B6
:101B5000CFA1CE4800680DF049FECC490860084688
:101B60000168CC480DF064FEC848CBA10268022091
:101B700004F034FEC74ACFA1022004F02FFE002556
:101B80000AE0C2480068405D303806EB860100EB91
:101B9000410086B2681C85B2BC4800680DF0B3FEF7
:101BA000A842EED8632E30D1CBA1CE480DF040FE36
:101BB00003F039FB002003F026FBB649CAA003F06E
:101BC000C8FC012003F01FFBC649CBA003F0C1FCF9
:101BD000CA4804F0FBFACAA1022004F027FD4FF422
:101BE0000071D1480DF031FFC44842788178C08837
:101BF0008DE84700C14843790279CC49CA48FEF7CD
:101C000067FBCBA1C84807F03FFF002E32D1CAA125
:101C1000B4480DF00DFE03F006FB002003F0F3FACC
:101C20009C49B1A003F095FC012003F0ECFA00E020
:101C300061E2AC49B0A003F08CFCB04804F0C6FAF5
:101C4000BFA1022004F0F2FC4FF40071B6480DF081
:101C5000FCFEAA4842788178C0888DE84700A748F2
:101C600043790279BDA1B048FEF732FBB0A1AE487E
:101C700007F00AFF012E31D1052E2FDCAEA19948C5
:101C80000DF0D6FD03F0CFFA002003F0BCFA814935
:101C900095A003F05EFC012003F0B5FA914996A0EF
:101CA00003F057FC954804F091FAA5A1022004F036
:101CB000BDFC71029C480DF0C8FE904842788178C6
:101CC000C0888DE847008D4843790279A3A19648E2
:101CD000FEF7FEFA96A1944807F0D6FE1F2E02D119
:101CE000AEA1804860E176E141542B514750533D0D
:101CF0003100000041542B514944454143543D318A
:101D00000D00000041542B5153504E00566F64613A
:101D1000666F6E650000000072CE07206D326D693F
:101D20007361666500000000B5CD072004C107207F
:101D3000494F542E434F4D00777777004F706572AF
:101D400061746F723A0A566F6461666F6E65000067
:101D500041504E2061737369676E696E673A2573EF
:101D60000A0D000061697274656C0000616972742B
:101D7000656C696F742E636F6D0000006169727429
:101D8000656C677072732E636F6D00004F706572C3
:101D900061746F723A0A41697274656C00000000E8
:101DA0004964656100000000496E7465726E657477
:101DB000000000004F70657261746F723A0A4964E6
:101DC0006561000042534E4C0000000062736E6C6F
:101DD0006E6574004F70657261746F723A0A425397
:101DE0004E4C0000494F5455524C0000494F545539
:101DF000524C2E434F4D00004F70657261746F72EC
:101E00003A0A494F5455524C2E434F4D00000000A2
:101E10004A696F004A696F6E657400004F706572A1
:101E200061746F723A0A4A696F20344700000000FB
:101E3000415420726573706F6E73200A2066616969
:101E40006C7300004F70657261746F723A0A4E4194
:101E5000000000004F70657261746F72206E6F74C5
:101E60002064657465637465642E0D0A00000000CB
:101E70007265747279200A206661696C73000000D3
:101E800041542B43535100003A20000000C1072069
:101E90002C00000085C007205369676E616C2053D9
:101EA0007472656E6774682056616C75653A20259A
:101EB000730D0A00427566666572205369676E612C
:101EC0006C20537472656E6774682056616C75651A
:101ED0003A2025730D0A00006E6F74204176616907
:101EE0006C00000061C807205369676E616C205167
:101EF0006C74793A202573002573000000C6072012
:101F0000205369676E616C20737472656E677468C4
:101F1000206973204E4F5420444554454354414258
:101F20004C45200D0A000000D4CA0720B82D01003E
:101F30006572722E74787400706F6F72000000000A
:101F4000205369676E616C20737472656E67746884
:101F500020697320506F6F72200D0A005B253032AC
:101F6000642F253032642F25643B253032643A25B6
:101F70003032645D3A5B4552524F525D3A53696765
:101F80006E616C20737472656E676820697320508F
:101F90006F6F723A2025643B00000000457863654E
:101FA0006C6C656E740000000DF042FC03F03BF9B0
:101FB000002003F028F9FC49AFF2D40003F0C9FA7D
:101FC000012003F020F9F949AFF2D40003F0C1FA7F
:101FD000012004B070BD062E37DB092E35DCF4A1DC
:101FE000F2480DF025FC03F01EF9002003F00BF978
:101FF000ED49AFF20C1003F0ACFA012003F003F945
:10200000EA49AFF20C1003F0A4FAEC4804F0DEF851
:10201000EBA1022004F00AFB4FF40071F0480DF030
:1020200014FDE64842788178C0888DE84700E3488F
:1020300043790279EB49EA48FEF74AF9AFF2101109
:10204000E74807F021FD0120C3E70A2E1ADB0E2E18
:1020500018DCAFF60011D5480DF0EAFB03F0E3F809
:10206000002003F0D0F8D049AFF2841003F071FAE9
:10207000012003F0C8F8CD49AFF2841003F069FAEB
:102080000120A6E70F2E19DB132E17DCD6A1C748B7
:102090000DF0CEFB03F0C7F8002003F0B4F8C249FE
:1020A000AFF2BC1003F055FA012003F0ACF8BF49C1
:1020B000AFF2BC1003F04DFA01208AE7142E1ADBB0
:1020C0001E2E18DCAFF22C11B8480DF0B1FB03F056
:1020D000AAF8002003F097F8B349AFF2F41003F028
:1020E00038FA012003F08FF8B049AFF2F41003F092
:1020F00030FA01206DE7601E84B2002C3FF710AD6E
:10210000BBA1022004F092FA03F08DF8002003F046
:102110007AF8BEA003F01DFA012003F074F8BFA006
:1021200003F017FAC0A1A1480DF082FB0720C149B6
:10213000086000204DE710B5002403F074F800207B
:1021400003F061F8BCA003F004FA0F2430E003F0C0
:1021500055FCC820FEF767F84FF49672BAA1BDA0EF
:10216000FFF70EF868B1BEA1022004F05FFA03F099
:102170005AF8C2A003F0EDF96420FEF754F80120EC
:1021800010BD4FF49672C1A1B2A0FEF7F9FF68B17D
:10219000C1A1022004F04AFA03F045F8C4A003F0FC
:1021A000D8F96420FEF73FF80120E9E7601EC4B2C9
:1021B000002CCCDCC1A1022004F038FA06209D4995
:1021C000086003F030F8C3A003F0C3F90020D7E79C
:1021D000FEB50646A8A1022004F028FAAFF2EC41B1
:1021E000022004F023FAAFF2F441012004F01EFAB9
:1021F00049F64041AFF6A420FEF78CFF6420FEF7BD
:1022000012F8FFF798FF05460DB90020FEBD6420C7
:10221000FEF709F8FFF77EFC05460DB90020F5E74B
:102220006420FEF700F8022463E0FFF788FB6420D7
:10223000FDF7F9FF90A1022004F0F8F9A9A102200E
:1022400004F0F4F90220FDF7EEFFAA48016802202D
:1022500004F0ECF9A8A1022004F0E8F9A1A1012002
:1022600004F0E4F90220FDF7DEFFA2480168012036
:1022700004F0DCF9A0A1012004F0D8F94FF4FA61D0
:10228000AFF63030FEF746FF6420FDF7CCFF02F0DA
:10229000CAFF002002F0B7FF98A003F05AF903F03C
:1022A000ADFB75A1022004F0C1F9AFF6C0210220F8
:1022B00004F0BCF9AFF6CC21012004F0B7F9924943
:1022C000AFF67030FEF726FF05462DB900208F4986
:1022D00008600E20574908604DB1012002F093FFBD
:1022E0008BA003F036F90120884908608EE7601E54
:1022F000C4B2002C99DC314803F068FF86A10220AB
:1023000004F094F94FF4007135480DF09EFB2B4812
:1023100043788278C1888DE80E004379027984A1E0
:102320002F48FDF7D5FFAFF2F8312D4807F0ACFB91
:1023300000207649086069E710B54FA1022004F03B
:1023400075F90A2466E187A1022004F06FF902F012
:102350006AFF002002F057FF8FA003F0FAF8012077
:1023600002F051FF90A003F0F4F86420FDF75BFF4A
:102370004FF4FA6290A194A0FEF702FF28B195A154
:10238000022004F053F9012010BD4FF4FA629CA121
:102390008DA0FEF7F5FE28B18EA1022004F046F9CB
:1023A0000120F1E734E1000085C0072061C8072063
:1023B0004D617267696E616C0000000000C6072005
:1023C000205369676E616C20737472656E67746800
:1023D000206973204D617267696E616C200D0A007F
:1023E000D4CA0720002E0100474F4F4400000000D0
:1023F0005369676E616C20516C74793A204E6F207E
:102400007369676E616C0D0A000000005369676EA6
:10241000616C20516C74793A000000004E6F206EA0
:102420007477726B000000006E6F206E7477726BB1
:10243000000000009CC007204E74776B207372630D
:1024400068696E672E2E00002B435245473A2030B4
:102450002C35000041542B435245473F00000000FB
:102460004E6574776F726B20666F756E642C207288
:102470006F616D696E6720210D0A0000726F616DDA
:10248000696E672C206F6B21000000002B435245C2
:10249000473A20302C3100004E6574776F726B2004
:1024A000666F756E642C20686F6D6520210D0A00C3
:1024B000686F6D652C206F6B210000004E6574778E
:1024C0006F726B206E6F7420666F756E6420210DC5
:1024D0000A000000526567204E74776B20457272C7
:1024E0002100000041542B5149435347503D312CAA
:1024F000312C220004C10720220D000070647020DE
:10250000636865636B2E2E00C0D4010098C007205D
:102510004F4B20210000000050445020416374695B
:10252000766174696F6E206661696C200D0A000027
:102530005B253032642F253032642F25643B2530F3
:1025400032643A253032645D3A5B4552524F525DF7
:102550003A4750525320434F4E4E204641494C3B40
:1025600000000000436865636B696E672074696CE6
:102570006C2073696D20616E64206D6F64756C658D
:10258000206861766520636F6D6D756E6963617437
:1025900065642E2E3F0D0A00436F6D6D756E696385
:1025A0006174696F6E000000496E697469616C69DD
:1025B0007A696E672E2E2E002B51494E4953544195
:1025C000543A20330000000041542B51494E4953E6
:1025D0005441540073696D20616E64206D6F6475A1
:1025E0006C65206861766520636F6D6D756E6963DB
:1025F000617465642C20446F6E650D0A0000000054
:102600002B51494E49535441543A203700000000A1
:10261000601EC4B2002C3FF796AEF7A1022004F072
:1026200005F802F000FE002002F0EDFDFDA002F032
:1026300090FF0020A8E670B5052454E002F0F3FDF9
:10264000002002F0E0FDFBA002F083FF03F0D6F9CA
:102650004FF4FA62AFF60471FAA0FEF791FD00287C
:102660003FD0FBA1022003F0E1FF3220FDF7DBFDAC
:102670004FF4FA62AFF62471F9A0FEF781FD00284D
:102680002FD03220FDF7CFFD002525E0F748405D33
:1026900030281FDBF548405D39281BDCF348411921
:1026A0001322F3480DF01AFA0020F149C874EF48DC
:1026B0000DF029F9C5B2EFA1022003F0B7FFEC49F4
:1026C000022003F0B3FFAFF66811022003F0AEFF63
:1026D000012070BD681CC5B2E4480DF014F9A84291
:1026E000D4D8601EC4B2002CA8DCE4A1022003F000
:1026F0009DFFE7A1DE480DF09BF8012002F083FD6D
:10270000E5A002F026FF4FF4FA60FDF78CFD0020F3
:10271000DFE770B51021E4480DF097F9052440E09B
:1027200041F27072AFF6D471E0A0FEF729FD0028E7
:1027300035D03220FDF777FD00252BE0CB48405DFA
:10274000302825DBC948405D392821DCC7484119BC
:102750000F22D5480DF0C2F90020D349C873C348F1
:102760000DF0D1F885B202F05EFD002002F04BFDC5
:10277000D0A002F0EEFE012002F045FDCA49AFF6FE
:10278000880002F0E6FEC820FDF74DFD012070BD77
:10279000681C85B2B5480DF0B6F8A842CED8601EC8
:1027A00084B2002CBCDC0020F1E770B500254FF4AA
:1027B0009672C4A1C6A0FEF7E3FC30B94FF496723E
:1027C000C6A1C3A0FEF7DCFC60B1C7A1022003F0E4
:1027D0002DFFC8A1012003F029FF4FF47A71C8A092
:1027E000FEF798FC8EA1022003F020FF39E00A24B6
:1027F00035E0C4A1022003F019FF02F014FD00200F
:1028000002F001FDC6A002F0A4FE03F0F7F84FF4B9
:102810009672BBA1C6A0FEF7B3FCA0B14FF49672AE
:10282000B7A1C4A0FEF7ACFC68B1C4A1022003F0BC
:10283000FDFE012002F0E7FCC7A002F08AFE142092
:10284000FDF7F1FC012545B1FFF763FF05460DB12A
:10285000012000E00020C0B270BD601EC4B2002C98
:10286000C7DCC4E710B5FFF7A0FF00282ED0BB4897
:102870000068FEF747FFBA49087008460078032849
:1028800003D1B8A1022003F0D1FEB5480078042896
:1028900003D1BAA1022003F0C9FE61A1022003F016
:1028A000C5FEBF49022003F0C1FEBD49012003F06F
:1028B000BDFE40F6B83192A0FEF72CFCFFF7BBFE40
:1028C00020B1FFF739FD08B1012010BDB5A0A34923
:1028D0000860B4A1B4480CF0ABFFB2A1B3480CF04F
:1028E000A7FFB0A1B2480CF0A3FFAEA1B1480CF015
:1028F0009FFFAFF2CC41B0480CF09AFFA9A1AF48BE
:102900000CF096FF0020E0E770B504F0BCF903F08E
:1029100075F8022406E0FFF7A5FF054605B103E0C0
:10292000012070BD002CF6DC00BF03F067F8002D1D
:102930003AD0A3A1022003F079FE02F074FC00203B
:1029400002F061FCA9A002F004FE012002F05BFC91
:10295000AAA002F0FEFDC820FDF765FC7F480068D4
:10296000FFF736FC054603F049F8002D34D0FEF79A
:10297000CFFF7A480068FEF7C5FE0646032E03D156
:1029800078A1022003F052FE042E03D17BA1022085
:1029900003F04CFEFEF764FEC820FDF744FCFEF792
:1029A00034FDFEF71EFDBCE798A1022003F03EFEB9
:1029B00002F039FC002002F026FC8CA002F0C9FDD8
:1029C000012002F020FC9BA002F0C3FD4FF4FA604E
:1029D000FDF729FC0120A4E70020A2E710B599A18A
:1029E000022003F023FE00214220FEF779F94FF484
:1029F0007A70FDF718FC10BD73696D20616E64205C
:102A00006D6F64756C65206861766520636F6D6DB0
:102A1000756E6963617465642C204661696C6564D8
:102A20000D0A000053494D204353204661696C65EF
:102A300064000000436865636B2053494D43617235
:102A4000642E2E0041542B4350494E3F000000009D
:102A500053494D204465746563746564210D0A0013
:102A600041542B51434349440000000072CE0720DB
:102A700048C80720434349443A00000053494D20C9
:102A80006E6F7420666F756E6420200D0A00000062
:102A90005F6572726F72000053494D206E6F742033
:102AA000666F756E6400000038C8072041542B47DC
:102AB000534E000044657669636520494D45493AA7
:102AC000000000002B434D45453A20310000000036
:102AD00041542B434D45453F000000002B434D45DD
:102AE000453A20300000000041542B434D45453D00
:102AF000320D0A0041542B434D45453D320D000037
:102B00004F4B0000496E697469616C6973696E6747
:102B100020415420656E67696E652E2E2E0D0A00C9
:102B20006D6F64656D20696E69742E2E0000000063
:102B300041540000415445310000000041542065DB
:102B40006E67696E6520696E697469616C69736529
:102B5000642E0D0A000000004F4B210004C1072025
:102B600091C007204750535309205374696C6C205F
:102B7000706F776572204F4E200D0A0054494D4505
:102B80005F53594E4348524F4E495A455F4E4F543A
:102B90005F434F4D504C455445200D0A0000000046
:102BA000741800004E41000018C8072028C80720EC
:102BB0006AC0072062C0072061C8072085C00720BF
:102BC0004D6F64656D20456E67696E6520496E695D
:102BD0007469616C697A6174696F6E20537563639F
:102BE00065737366756C200D0A0000004D6F646597
:102BF0006D20456E67696E6500000000496E69745E
:102C000069616C697A656420212100004D6F6465FB
:102C10006D20456E67696E6520496E697469616CE7
:102C2000697A6174696F6E204661696C6564200D14
:102C30000A0000004572726F7220436F6D6D2E2E78
:102C400020212100506F776572204F6E206D6F64D8
:102C5000756C652E2E2E0D0A0000000010B5FEF7D3
:102C600085FBFDA1022003F0E1FC01214220FEF7DB
:102C700037F84FF47A70FDF7D6FA10BD70B5FDA1A4
:102C8000022003F0D3FC00213520FEF729F84FF491
:102C9000FA50FDF7C8FAFDA1022003F0C7FCFFA11E
:102CA000012003F0C3FC40F6B831AFF2AC10FEF7E0
:102CB00031FA044684B9FCA1022003F0B7FCFFF707
:102CC000CDFFFFF78BFE4FF4FA50FDF7ACFAFFF79C
:102CD0001BFE0546284670BD2046FCE710B5FBA14B
:102CE000022003F0A3FC02F09EFA002002F08BFA0F
:102CF000FCA002F02EFC02F081FE022434E043F638
:102D00009822AFF20421FBA0FEF73AFA78B1FCA1B9
:102D1000022003F08BFC012002F075FAFEA002F005
:102D200018FC40F6B830FDF77EFA012010BDC8202F
:102D3000FDF779FA43F69822AFF23C21F9A0FEF7AD
:102D40001FFA78B1FAA1022003F070FC012002F012
:102D50005AFAFDA002F0FDFB4FF4FA50FDF763FABA
:102D60000120E3E7601EC4B2002CC8DC0020DDE7D0
:102D700010B502F043FEF8A1022003F057FCF9A1C0
:102D8000012003F053FC4FF47A71F9A0FEF7C2F969
:102D900080B9FAA1022003F049FCFBA1012003F055
:102DA00045FC4FF47A71AFF2A820FEF7B3F9FFF7B4
:102DB00095FF10BD0120FCE730B593B004462546D1
:102DC0002C46123529460BA80CF032FDF1A1022049
:102DD00003F02CFC0BA9022003F028FC32208DF814
:102DE000240030208DF825009DF82D008DF8260058
:102DF0009DF82E008DF8270000208DF828009DF802
:102E000030008DF820009DF831008DF82100002061
:102E10008DF822009DF833008DF81C009DF83400D9
:102E20008DF81D0000208DF81E009DF836008DF8ED
:102E300018009DF837008DF8190000208DF81A0051
:102E40009DF839008DF814009DF83A008DF81500B2
:102E500000208DF816009DF83C008DF810009DF8BC
:102E60003D008DF8110000208DF8120004AB05AA7A
:102E700006A907A88DE80F0008AB09AAC8A102207F
:102E800003F0ACFC06A8FDF7E3FCCA49887005A86E
:102E9000FDF7DEFCC749487004A8FDF7D9FCC54919
:102EA000087007A8FDF7D4FCC249087108A8FDF70F
:102EB000CFFCC049487109A8FDF7CAFCBD49C880CC
:102EC0000846C088B0F5026F0BD00846C08840F2B3
:102ED000E571884205DBB74803F05EF9012013B0C5
:102EE00030BD0020FBE710B5B34CB4A1022003F0C5
:102EF0009DFBB5A1012003F099FB4FF47A71AFF26D
:102F00000040FEF707F92146022003F08FFB204620
:102F1000FFF752FF10BD10B591A1022003F086FB10
:102F2000ACA1022003F082FBAAA1012003F07EFBEA
:102F300040F6B831AFF23840FEF7ECF810BD10B5EE
:102F4000002402F070F9002002F05DF9A5A002F063
:102F500000FB0F242FE002F051FDC820FDF763F9BC
:102F6000A34AA4A1A6A0FEF70BF970B1A7A1022065
:102F700003F05CFB012002F046F9A9A002F0E9FA97
:102F8000C820FDF750F9012010BD994AA7A19CA0C7
:102F9000FEF7F6F870B19DA1022003F047FB012077
:102FA00002F031F99EA002F0D4FAC820FDF73BF9F7
:102FB0000120E9E7641E002CCDDC012002F023F99A
:102FC0009DA002F0C6FA09209E4908604FF47A706D
:102FD000FDF729F90020D7E72DE9F0478CB004462A
:102FE0008946154602F01FF9002002F00CF996A060
:102FF00002F0AFFA012002F006F995A002F0A9FA5A
:1030000002F0FCFC20460CF07EFC82465023024677
:1030100092A105A80095FDF75BF905A9022003F030
:1030200005FB05A9012003F001FB924992A0FEF7E0
:1030300071F800280FD002F0E1FC47F23052AFF2F5
:1030400040512046FEF79CF88DA15B480CF0DEFB5A
:1030500000B919E11DE120E25368757474696E6767
:1030600020646F776E206D6F64756C652E2E2E0D4B
:103070000A0000004D4F44554C45204143544956E9
:103080004154494E472E2E2E2E0D0A0041542B51ED
:1030900053434C4B3D300D0A0000000041542B516E
:1030A00053434C4B3D300D004D4F44554C45204E45
:1030B0004F542041435449564154452050524F509B
:1030C00045524C592E2E2E0D0A00000053657420D7
:1030D00046756E74696F6E616C6974792E2E2E0D53
:1030E0000A00000046756E74696F6E616C697479D0
:1030F0002E2E2E0041542B4346554E3D30000000ED
:10310000202B2B2B2B204D696E696D756D202B2B81
:103110002B2B200D0A0000002B204D696E696D7568
:103120006D202B0041542B4346554E3D310000008D
:10313000202B2B2B2B2046756C6C206D6F6465202B
:103140002B2B2B2B200D0A002B2046756C6C206D31
:103150006F6465202B00000041542B43545A553FA7
:103160000D0A000041542B43545A553F0D000000F6
:103170002B43545A553A20330000000041542B434E
:10318000545A553D330D0A0041542B43545A553D72
:10319000330D0000676574636C6F636B00000000A3
:1031A00025732F25732F25732025733A25733A2510
:1031B000730A0D0000C6072072CE072041542B432E
:1031C000434C4B3F0D0A000041542B43434C4B3FB3
:1031D0000D00000041542B51474E5353433D310DD8
:1031E00000000000475052532053746174757300FF
:1031F000F04902002B43475245473A20302C350016
:1032000041542B43475245473F000000475052531B
:1032100020436F6E6E656374656420210D0A0000A3
:10322000436F6E6E65637465642021002B434752C3
:1032300045473A20302C3100636865636B696E67DF
:103240002E2E2E009CC0072053656E64696E6700A9
:103250005061636B65742E2E2E00000041542B517B
:1032600048545450504F53543D25642C25642C250C
:10327000640D0000C0D40100434F4E4E454354003E
:103280002C32303000000000FCA1FE480CF0BEFAE9
:1032900040B101F0C8FFFCA002F05BF901200CB0C6
:1032A000BDE8F08747F23052FBA1AFF22C00FDF7EA
:1032B00049FF064636B101F0B6FFF3A002F049F926
:1032C0000120ECE701F0AFFFF4A002F042F9FFF7B4
:1032D000C5FC40F2BE20F54908604FF40071F44887
:1032E0000CF0B3FBF34802F071FFF0480368F148BB
:1032F00042788178C0888DE80F00EE4843790279E2
:10330000EDA1EB48FCF7E4FFF849E94806F0BCFB07
:10331000F7A1DC480CF07AFA78B9F9A1D9480CF099
:1033200075FA50B9FAA1D7480CF070FA28B9FFA184
:10333000D4480CF06BFA00287ED0FFF78FFC02F027
:103340005DFBEBA1CF480CF061FA38B1FDA1022082
:1033500003F06CF940F2BF20D4490860E8A1C948E5
:103360000CF054FA38B1FBA1022003F05FF940F2EF
:10337000CA20CE490860EDA1C2480CF047FA38B126
:10338000F8A1022003F052F940F2BE20C7490860BC
:103390004FF40071C6480CF058FBC64802F016FF07
:1033A000C2480368C34842788178C0888DE80F001E
:1033B000C04843790279F449BD48FCF789FFCB49FD
:1033C000BB4806F061FBFFF749FCFFF707FB4FF432
:1033D0007A70FCF728FFFFF797FA8046B8F1000FE4
:1033E0003AD0204600F09CFA0746022F03D0052F62
:1033F00001D0002F2ED1E5A1022003F017F901F032
:1034000012FF002001F0FFFEECA002F0A2F8FFF78F
:1034100025FC4FF40071A6480CF017FBA54802F0FC
:10342000D5FEA44843788278C1888DE80E004379A0
:103430000279E6A19E4800E0C2E0FCF749FFAB49F3
:103440009B4806F021FB4FF47A70FCF7ECFE052751
:10345000002024E7012022E74FF4007194480CF08B
:10346000F4FA944802F0B2FE924843788278C18818
:103470008DE80E0043790279E2A18D48FCF728FF20
:103480009A498B4806F000FBEEA1022003F0CEF82B
:103490000020F5490860052701E795A179480CF05F
:1034A000B5F978B996A177480CF0B0F950B998A160
:1034B00074480CF0ABF928B99CA172480CF0A6F93D
:1034C00000287DD0FFF7CAFB02F098FA88A16D486A
:1034D0000CF09CF938B19BA1022003F0A7F840F250
:1034E000BF207249086086A166480CF08FF938B198
:1034F00098A1022003F09AF840F2CA206B490860B4
:103500008AA160480CF082F938B196A1022003F03C
:103510008DF840F2BE20654908604FF400716448A0
:103520000CF093FA634802F051FE6048036861486A
:1035300042788178C0888DE80F005E48437902792F
:10354000914944315A48FCF7C3FE6849584806F08F
:103550009BFAFFF783FBFFF741FA4FF47A70FCF711
:1035600062FEFFF7D1F98046B8F1000F38D020464F
:1035700000F0D6F90746022F03D0052F01D0002F07
:103580002CD101F050FE002001F03DFE8BA001F097
:10359000E0FF7EA1022003F049F84FF40071444897
:1035A0000CF053FA434802F011FE42484378827807
:1035B000C1888DE80E004379027984A13C4800E07F
:1035C0002FE0FCF785FE4949394806F05DFA4FF4D3
:1035D0007A70FCF728FE0527002060E601205EE6F1
:1035E0004FF4007132480CF030FA324802F0EEFD30
:1035F000304843788278C1888DE80E00437902799B
:103600009AA12B48FCF764FE3849294806F03CFA99
:103610008CA1022003F00AF80020934908600527D6
:103620003DE63CE630B587B00446A0A1022002F09A
:10363000FDFF9EA1012002F0F9FF40F6B831AFF680
:103640004030FDF767FD02F0D9F920460CF05BF938
:10365000054602469CA16846FCF73AFE69460220F0
:1036600002F0E4FF6946012002F0E0FF47F230512A
:10367000AFF2FC30FDF74EFD30E100002C3330326C
:103680000000000072CE0720506F737420537563E2
:10369000636573732021210033303200506F7374DF
:1036A000206661696C202121000000009CC0072079
:1036B000D4CA072000C607205B253032642F25308E
:1036C00032642F25643B253032643A253032645D04
:1036D0003A5B4552524F525D3A2B434D452045527D
:1036E000524F52203A2025643B000000301F00005A
:1036F0002B434D45204552524F523A20373033002C
:103700002B434D45204552524F523A203731340019
:103710002B434D45204552524F523A204874747005
:1037200020646E73206572726F7200004D4F4445C5
:103730004D5F524553504F4E53455F54494D454F91
:10374000555400005B4552524F525D3A203730339A
:103750000A0D00005B4552524F525D3A203731341A
:103760000A0D00005B4552524F525D3A204D4F44C6
:10377000454D5F524553504F4E53455F54494D455B
:103780004F55540A0D000000442E01000A0D202D53
:103790002D2D2D2D2D2D2D205061636B65742073E3
:1037A000656E64696E67206661696C6564202D2DA5
:1037B0002D2D2D2D2D2D0A0D0000000020506F7392
:1037C00074206661696C6564202100005B253032DD
:1037D000642F253032642F25643B253032643A252E
:1037E0003032645D3A5B4552524F525D3A706163CC
:1037F0006B65742073656E64696E67206661696CC1
:1038000065643B005B253032642F253032642F2500
:10381000643B253032643A253032645D3A5B455270
:10382000524F525D3A4D6F64756C6520696E6974D4
:1038300069616C697A6174696F6E206661696C6533
:10384000643B00002D2D4D6F64756C6520696E69B9
:103850007469616C697A6174696F6E206661696C04
:10386000642D2D200A0D000098C007205B25303202
:10387000642F253032642F25643B253032643A258D
:103880003032645D3A5B4552524F525D3A4D6F643F
:10389000756C6520696E697469616C697A617469B7
:1038A0006F6E20666169656C643B000041542B516A
:1038B000485454504346473D22636F6E7465787494
:1038C0006964222C310D000041542B51485454504E
:1038D00055524C3D25642C33300D000040B147F269
:1038E0003052AFF6E4512046FDF74AFC07B030BD38
:1038F0000020FBE710B502F081F8AFF29C710220C6
:1039000002F094FEFFA1022002F090FEFDA1012032
:1039100002F08CFE40F6B831FDA0FDF7FBFB10BDB8
:1039200070B50446FFF7E6FF88B901F07CFCFBA008
:1039300001F00FFE022507E0FD480068FEF748FC95
:1039400000B103E0002070BD002DF5DC0DE0F9486A
:10395000FFF768FE3220FCF766FC50221146204635
:10396000FFF73AFB06463046EDE7F248FFF75AFE0E
:10397000502211462046FFF72FFB06463046E2E76D
:1039800010B5AFF62401022002F050FEEAA1022099
:1039900002F04CFEE8A1012002F048FE4FF47A71DB
:1039A000AFF6A460FDF7B6FB10BD0120E549086045
:1039B000E54800680D2803D30120E349086004E0CE
:1039C000E1480068401CE0490860704710B5DFA17D
:1039D000022002F02BFEE1A1012002F027FE40F6BA
:1039E000B831AFF6E460FDF795FB10BD10B586B0B9
:1039F00004460020DD4908602246DDA101A8FCF74D
:103A000067FC01A9022002F011FE01A9012002F0C9
:103A10000DFE40F6B831AFF61870FDF77BFB06B02F
:103A200010BD38B54FF4FA70FCF7FDFBD3A1D548B3
:103A30000BF0ECFE20B9D4A1022002F0F7FDB4E0B7
:103A400001F0DCFF0020C949086012E0CD48C749F9
:103A50000968405C0D2805D0CA48C4490968405C23
:103A60000A2805D1C1480068401CC049086000E030
:103A700000E0EBE700BF04E0BC480068401CBB4925
:103A80000860C048B9490968405C2C28F4D1B7489F
:103A90000068801CB549086000240BE0B948B349B0
:103AA0000968405CBC490855B0480068401CAF49F3
:103AB0000860641C0C2CF1DDB8A1022002F0B6FDF8
:103AC000B549022002F0B2FDBCA1022002F0AEFD19
:103AD000A6480068C01CA5490860002400BF0BE090
:103AE000A848A2490968405CB54908559F48006844
:103AF000401C9E490860641C0F2CF1DB2220B04959
:103B00000855B0A1022002F091FDAD49022002F05B
:103B10008DFDAAA1022002F089FD00BF9348006834
:103B2000401C9249086008460068401E9549085CA0
:103B30000A28F3D100240BE092488C490968405CC4
:103B4000A949085589480068401C88490860641CD8
:103B50008C4886490968405C0D28EDD100208349D6
:103B60000860A1490855A1A1022002F05FFD9E490D
:103B7000022002F05BFD91A1022002F057FDA24855
:103B80000068401CA04908604FF400719F480BF08A
:103B90005CFF954B0093804B894A9DA19B48FCF7A5
:103BA00097FB9FA1994805F06FFF0020A04908707E
:103BB00038BD3EB50446FDF7A4FA22469DA16846ED
:103BC000FCF786FB6946022002F030FD69460120C1
:103BD00002F02CFD40F6B83199A0FDF79BFA99A1AF
:103BE000022002F023FDFFF71CFF3EBD2DE9F04F40
:103BF00089B000200890079003A800210A460B46D0
:103C00000D462EC000250027884689468A4601F0C9
:103C1000F5FE98A1022002F009FD96A1012002F014
:103C200005FD40F6B83186A0FDF774FA4FF4FA703E
:103C3000FCF7F9FA95A153480BF0E8FD00285ED097
:103C40003A2150480BF0D8FD841C08E02846691C36
:103C5000CDB2225C3846791CCFB208A90A54605D07
:103C60002C28F3D1002008A9C8558AA1022002F00F
:103C7000DDFC08A9022002F0D9FC08A8FCF7E8FD49
:103C8000804642468CA1022002F0A8FD681CC5B205
:103C9000002708E02846691CCDB2225C3846791C12
:103CA000CFB207A90A54605D2C28F3D1002007A9E0
:103CB000C85588A1022002F0B9FC07A9022002F031
:103CC000B5FC07A8FCF7C4FD824652468AA1022033
:103CD00002F084FDB8F1000F13D001F08FFE8F4881
:103CE00006F05BF9C6B25EB18DA1022002F09EFC27
:103CF00001F099FA002001F086FA8FA020E186E217
:103D00002BE172E241542B51494143543F0D0000D5
:103D10002B51494143543A20312C31004950206104
:103D2000737369676E204661696C6564000000000A
:103D300004C1072070C8072041542B5149535441F6
:103D400054450D00A0C00720A4C0072041542B43B8
:103D50004D47443D312C340D0A00000041542B43A3
:103D60004D47443D312C340D00000000FCC00720BD
:103D700041542B434D47443D25640D002B434D4793
:103D80005200000072CE07204E6F206D6573736184
:103D900067650D0A000000004CCD07200D0A202D9C
:103DA0002D2D2D2073656E6465722773206D6F62F3
:103DB000696C65206E6F202D2D2D2D200D0A0000C1
:103DC000A4CD07200D0A202D2D2D2D204D657373B8
:103DD000616765206172726976652074696D65201E
:103DE0002D2D2D2D200D0A005ACD07200D0A202D36
:103DF0002D2D2D20534D5320426F6479202D2D2DD4
:103E00002D200D0A0000000050C0072018C6072012
:103E10005B25735D3B5B25735D3B257300000000F4
:103E2000726563765F534D532E7478740000000002
:103E30004CC0072041542B434D47523D25640D0093
:103E40004F4B00000D0A202D2D2D2D207072696E14
:103E50007420746865207265616420534D53206F2F
:103E60006E207465726D696E616C202D2D2D2D2074
:103E70000D0A000041542B43504D533D22534D2217
:103E80002C22534D222C22534D220D002B43504DFA
:103E9000533A00000D0A202D2D2D2D206E6F206F1E
:103EA00066206D73672070726573656E74202D2DAA
:103EB0002D2D200D0A0000000D0A20696E7420636C
:103EC0006F756E74206F66204D5347203D2025642A
:103ED000200D0A000D0A202D2D2D2D20534D53208D
:103EE00073746F726167652073697A65202D2D2D5B
:103EF0002D200D0A000000000D0A20696E74207349
:103F0000746F7261676520636F756E74206F6620D1
:103F10004D5347203D202564200D0A00EED1072097
:103F20002046696C65204F70656E696E672046613A
:103F3000696C6564200A0D00436F6E666967200036
:103F400001F007FB012001F05EF9FCA001F001FB8C
:103F50004FF4FA60FCF767F931E0FC4AFCA102205B
:103F600002F03CFCFFA1F9480BF040FC0146029036
:103F7000FD480BF05DFCFBA100200BF037FC014677
:103F80000290FA480BF054FCF6A100200BF02EFC36
:103F900001460290F6480BF04BFCF2A100200BF01A
:103FA00025FC01460290F3480BF042FCEDA10020F5
:103FB0000BF01CFC01460290EF480BF039FCA8F115
:103FC00001094A46EDA1022002F008FC4846FFF72D
:103FD000F0FD4FF4FA70FCF726F9EFA1F0480BF072
:103FE00015FC08B14FF0010BEEA1ED480BF00EFCF3
:103FF00008B14FF0020BEEA1E9480BF007FC08B145
:104000004FF0030B01F0FAFCBBF1010F06D0BBF13E
:10401000020F34D0BBF1030F7ED19EE0AFF6381112
:10402000DF480BF0E3FB01460290CF480BF000FCA9
:10403000CD4AE0A1022002F0D1FB4FF40071E0482C
:104040000BF003FDCC4BCB4AC9498DE80E00C74BA2
:10405000C54ADCA1DA48FCF73BF9DEA1D84805F0F7
:10406000E4FF4846FFF7C2FC012001F0CCF8DBA0DA
:1040700001F06FFA4FF4FA60FCF7D5F8B4E0AFF650
:104080009811C7480BF0B2FB0146029003A80BF051
:10409000CFFBAFF6AC1100200BF0A8FB014602905D
:1040A000B2480BF0C5FBAFF6C01100200BF09EFB31
:1040B00001460290AE480BF0BBFBAFF6D4110020D6
:1040C0000BF094FB01460290AA480BF0B1FBA74805
:1040D000FCF7BEFBC4490870A548FCF7B9FBC3490F
:1040E0000870A448FCF7B4FBC149087003AAC1A139
:1040F000022002F073FBA04BBD480278BB48017858
:10410000B9488DE80E000378974ABD49022002F0B5
:1041100065FB4FF4007100E05BE0A9480BF095FCF3
:10412000954B944A92498DE80E00904B8E4AA5A17A
:10413000A348FCF7CDF8A7A1A14805F076FF4846B3
:10414000FFF754FC012001F05EF8AEA001F001FA87
:104150004FF4FA60FCF767F846E0AFF67421904838
:104160000BF044FB0146029003A80BF061FBAFF695
:10417000882100200BF03AFB014602907E480BF0AC
:1041800057FB7D4B03AAA3A1022002F027FB4FF4AB
:1041900000718B480BF059FC774B764A74498DE8D7
:1041A0000E00724B704A87A18548FCF791F889A1EF
:1041B000834805F03AFF4846FFF718FC012001F05C
:1041C00022F89AA001F0C5F94FF4FA60FCF72BF839
:1041D0000AE0012001F017F897A001F0BAF94FF4B6
:1041E000FA60FCF720F800BF0BE001F01CF800209B
:1041F00001F009F894A001F0ACF94FF47A70FCF7E3
:1042000012F8AAF10200404501DAFFF7DFFB09B01E
:10421000BDE8F08F10B501F0F1FBAFF26041022074
:1042200002F004FA8CA1022002F000FA8AA1012017
:1042300002F0FCF940F6B831AFF2FC30FCF76AFF4F
:104240004FF4FA70FBF7EFFFAFF2D831022002F023
:10425000EDF9AFF2E031012002F0E8F940F6B831B3
:10426000AFF22440FCF756FF4FF4FA70FBF7DBFF88
:104270007CA1022002F0DAF97AA1012002F0D6F93D
:1042800040F6B831AFF24840FCF744FF4FF4FA7003
:10429000FBF7C9FF76A1022002F0C8F974A1012042
:1042A00002F0C4F940F6B831AFF26C40FCF732FFCF
:1042B0004FF4FA70FBF7B7FF10BD70B5A8B025A892
:1042C00000210A460B460EC022A80EC01FA80EC031
:1042D0001CA80EC019A80EC016A80EC0684801F090
:1042E00075FF00228121802003F064FB02F08BFD2A
:1042F000FCF7BBFDFCF761F96248007838B962A1B0
:1043000062480BF095FA60A161480BF091FA002029
:104310005C4908705F48007838B95FA160480BF0CD
:1043200087FA5DA15F480BF083FA002059490870B5
:1043300001F064FB5A4925A8B6E0000066696C6587
:10434000206E6F7420666F756E642E00EED10720AC
:10435000696E69436F6E74656E743A2573200A0D39
:10436000000000007C00000070C80720E3C00720A8
:10437000E7C00720EBC00720B5CD07200D0A206954
:104380006E74206D736720696E646578203D20250A
:1043900064200D0A00000000687474703A00000088
:1043A0005ACD07204C6F67696E74657276616C0038
:1043B00041504E0055524C3A2573200A0D00000022
:1043C00018C6072025737C25737C25737C25737C98
:1043D00025730000494E492E7478740055524C20C4
:1043E0005570646174650000E0C00720E1C00720DB
:1043F000E2C00720466C61673A2573200A0D000071
:10440000642F0100496E74657276616C205570648A
:1044100061746500466C61673A2573200A0D20417E
:10442000504E3A2573200A0D0000000041504E20E6
:1044300055706461746500004E6F7468696E672022
:104440005570646174650000534D53206E6F742085
:10445000666F756E6420000041542B434D47463D06
:10446000310D000041542B435344483D310D0000B1
:1044700041542B435343533D2247534D220D0000DB
:1044800000C6072099C40720393939009AC407208B
:104490009EC4072089C507202D3939390000000046
:1044A000B2CF0720BCCF07200BF0C2F9FF4922A8EA
:1044B0000BF0BEF9FE491FA80BF0BAF9FC491CA885
:1044C0000BF0B6F9FB4919A80BF0B2F9F94916A897
:1044D0000BF0AEF94FF40071F7480BF0B6FAF74B5A
:1044E000F74AF849F84812AD0FC5034616AA19A9AC
:1044F00016A80EAD0FC516AB1FAA1CA9EC480AAD35
:104500000FC525AB22AAE949F04806AD0FC5F04B0F
:10451000F04842788178C08802AD0FC5ED484379F4
:104520000279CDE90023EC4BEC4AED49E248FBF778
:10453000CFFEE14AEB49022002F050F902F0A3FB62
:10454000FEF79CFB0546002D5ED001F057FA0226CF
:1045500008E0E5480068FDF73BFE054605B103E0CD
:10456000701EC6B2002EF4DC00BF002D34D0D2483D
:10457000FFF7D6F90446022C02D0052C00D034B93E
:10458000FFF7FEF918B1CC48FFF7CAF90446022C30
:1045900002D0052C00D0A4B900F045FE002000F0A8
:1045A00032FED2A000F0D5FF012000F02CFED4484E
:1045B0000168D4A000F0CDFF4FF4FA60FBF733FEA2
:1045C0001DE0012000F01FFED1A000F0C2FF4FF45B
:1045D000FA60FBF728FE12E000F025FE002000F054
:1045E00012FEAFF6286000F0B4FF012000F00BFED1
:1045F000CBA000F0AEFF4FF47A70FBF714FEFFF78C
:1046000009FEFFF7F3FA12E000F00DFE002000F0C3
:10461000FAFDAFF6586000F09CFF012000F0F3FDBA
:10462000C3A000F096FF4FF47A70FBF7FCFDFDF796
:104630006FF9FCF7B1FE02F02BFB28B070BD30B56E
:1046400087B04620FBF7EFFDBD4800680E280ED26C
:10465000DFE800F00D070E20272E36C3F0EEEDEC5C
:10466000EBEA00F0E0FD9C49B6A000F072FF8BE29F
:10467000984801F0ABFD00F0D6FD964803784278EB
:1046800081788DE80E00C38842790179B2A000F0EC
:1046900060FF79E200F0C7FD9049B7A000F059FF34
:1046A00072E200F0C0FDB849B8A000F052FF6BE222
:1046B00000F0B9FD8C480168B6A000F04AFF63E243
:1046C0000020FBF74EFFB8490860084600680DF06F
:1046D00019FACDE90401B5A00CC804980DF066FAEA
:1046E000CDE90201B3A00CC802980CF085FFCDE91A
:1046F00000010CF0E3FDB1490860084600680DF0C8
:1047000091FECDE90401AEA00CC804980DF04EFA5C
:10471000CDE90201A5A00CC802980CF06DFFCDE90F
:1047200000010CF0CBFDA84908603220FBF77BFDAF
:104730000120FBF716FFA5490860084600680DF048
:10474000E1F9CDE9040199A00CC804980DF02EFA06
:10475000CDE9020197A00CC802980CF04DFFCDE9FD
:1047600000010CF0ABFD9A490860084600680DF0A6
:1047700059FECDE9040197A00CC804980DF016FA73
:10478000CDE9020189A00CC802980CF035FFCDE9F3
:1047900000010CF093FD9149086002224B498A48C0
:1047A0000068FCF7A6F8022249498C480068FCF72B
:1047B000A0F800F038FD002000F025FD434988A056
:1047C00000F0C7FE012000F01EFD414988A000F066
:1047D000C0FEC820FBF727FDD6E100228121802002
:1047E00003F0E8F8C820FBF71EFD8548007838B9CB
:1047F00084A185480BF01CF882A184480BF018F8BE
:1048000000207F49087000F00EFD002000F0FBFC46
:104810007D497FA000F09DFE012000F0F4FC7B4963
:104820007FA000F096FEAFE166E154E141E12DE1A9
:1048300024E0FFE702F0E7FAC820FBF7F4FC7C482D
:10484000007838B96FA17B480AF0F2FF6DA17A4871
:104850000AF0EEFF00207649087000F0E4FC00202A
:1048600000F0D1FC734975A000F073FE012000F048
:10487000CAFC714975A000F06CFE85E177480068BC
:104880000DF056F9CDE9040175480CC804980DF0F7
:104890008DF9744A03C2734803C80CF00FFD054636
:1048A00002227149FCF725F8E0E00000B2CF0720B2
:1048B000BCCF07209EC40720D4C8072085C007208E
:1048C0007DC007206DC007209AC407201CC00720A8
:1048D00022C0072000C60720ECC5072038C80720E3
:1048E000CC2E01006018000004C1072055706C6FC9
:1048F0006164696E67206661696C65640000000030
:104900009CC00720457272203A20256400000000F8
:1049100055706C6F6164696E6720446F6E6500004E
:104920004750525320434F4E4E204641494C0000C1
:10493000415420434D44204641494C454400000029
:10494000A4C007204844572053542D303130312023
:104950000A465752202573002020202532642F2537
:1049600032642F25640A202020202532643A253223
:10497000643A253264000000446576696365204925
:104980004D45493A0A25730048C807204343494426
:104990003A2573004F70657261746F722041504EFA
:1049A0003A0A25730000000004C0072066666666A8
:1049B00066660A400000000000FEAF400CC0072001
:1049C0007B14AE47E13A354014C0072008C00720E9
:1049D00010C0072052B81E85EB71434018C0072055
:1049E00042617474203A2025303173205600000053
:1049F000536F6C61723A20253031732056000000ED
:104A000089C507204E410000D4CC0720DECC07200A
:104A100054656D70282743293A2025730000000053
:104A20005248756D696420203A202573000000000B
:104A300099C40720EFC00720F3C0072057646972AC
:104A400028646567293A2025730000005773706455
:104A5000286D2F73293A202573000000DCC0072041
:104A600058120000B8C0072075C0072000F0DBFB1B
:104A7000002000F0C8FBF5A000F06BFD012000F065
:104A8000C2FBF549F5A000F064FD7DE000F0CBFB32
:104A9000002000F0B8FBF349F34800F05AFD012074
:104AA00000F0B1FBF148F2490268F2A000F051FDBC
:104AB0006AE000F0B8FB002000F0A5FBF0A000F0D9
:104AC00048FD012000F09FFBF14BF24AF249F3A0B0
:104AD00000F03FFD58E000F0A6FB002000F093FB43
:104AE000F149F2A000F035FD012000F08CFBF24905
:104AF000F2A000F02EFD47E00120FCF764F800F082
:104B000092FB002000F07FFBEFA000F022FD0120CF
:104B100000F079FBF0A000F01CFD00214B20FCF719
:104B2000A9F800214B20FCF7C5F84FF49660FBF77D
:104B30007AFB4B20FCF7F9F80446C4B94FF47A70BD
:104B4000FBF771FB4B20FCF7F0F804467CB900F052
:104B50006AFB002000F057FBE4A000F0FAFC012003
:104B600000F051FBE6A000F0F4FCFFF7A6FB0020EC
:104B7000E7490860E74908600222E7490120FBF79E
:104B8000AFFF00F050FB00BF00BF07B030BD10B555
:104B9000E2A1022001F04AFDAFF24471012001F0D0
:104BA00045FD40F6B831AFF66850FCF7B3FADEA128
:104BB000022001F03BFDE2A1012001F037FD40F6AB
:104BC000B831AFF68450FCF7A5FAE2A1022001F05B
:104BD0002DFDAFF66051012001F028FD40F6B831FF
:104BE000AFF6A450FCF796FAE1A1022001F01EFDF9
:104BF000AFF28471012001F019FD40F6B831AFF633
:104C0000C050FCF787FA10BD38B50020DC490860B9
:104C10004FF4FA70FBF707FB12E0DA48D84909684D
:104C2000405C0D2805D0D748D5490968405C0A2862
:104C300005D1D3480068401CD149086000E000E07D
:104C4000EBE700BFD0A1CF480AF0E0FD00282ED04E
:104C500004E0CB480068401CC9490860C948C849FD
:104C60000968405C2C28F4D1C5480068401CC44940
:104C7000086000240BE0C348C1490968405C0DF896
:104C80000400BF480068401CBD490860641CBD4862
:104C9000BB490968405C0D28EDD168460AF098FDD3
:104CA000BB4908600020B6490860012038BD0020DB
:104CB000FCE7F0B589B004460D4600260020B04957
:104CC00008602246B3A16846FBF702FB6946022052
:104CD00001F0ACFC6946012001F0A8FCC820FBF7FC
:104CE000A2FA00F08BFE28E0A648A5490968405CBE
:104CF0003E281DD10020A2490860A2480AF003FE08
:104D0000074601469F480AF0A0FE2946012001F00F
:104D10008DFC1A21012001F078FC2946022001F0C7
:104D200085FCA049AFF6E860FCF7F4F9064605E01B
:104D300093480068401C92490860D5E700BF4FF4D3
:104D40009670FBF770FA00208D49086068460AF0FB
:104D5000DAFD0746014668460AF099FE16B10120C1
:104D600009B0F0BD0020FBE710B586B0044622462E
:104D70008DA101A8FBF7ACFA01A9012001F056FCB6
:104D800006B010BD10B58AA1012001F04FFC10BD86
:104D900000207B49086012E07A4879490968405C44
:104DA0000D2805D0774876490968405C0A2805D166
:104DB00073480068401C7249086000E000E0EBE7BF
:104DC00000BF04E06E480068401C6D4908606D48F3
:104DD0006B490968405C0D28F4D1002068490860DF
:104DE000704770B500240025AFF67C71022001F0F9
:104DF0001DFC71A1022001F019FC6FA1012001F03E
:104E000015FC40F6B8316FA0FCF784F9A0B13A2147
:104E10005C480AF0F1FC861D08E02046611CCCB21B
:104E2000325C2846691CCDB268490A54305D22289C
:104E3000F3D100206549485565A1022001F0F6FB39
:104E40006249022001F0F2FB70BD00005261696E00
:104E50002066616C6C00000075C007202573206D12
:104E60006D00000085C00720E81E000098C00720E4
:104E700061C8072025732C7064703A2025316400C6
:104E8000734C6F677C704C6F677C724C6F6700006F
:104E9000EBC00720E7C00720E3C0072025737C256F
:104EA000737C25730000000018C807204C61742033
:104EB0003A2025730000000028C807204C6F6E20A0
:104EC0003A2025730000000050726573732026207D
:104ED000486F6C6400000000746F2073656E64207E
:104EE00074657374206C6F67000000002B2B2B20FF
:104EF00054657374206C6F67202B2B2B000000000F
:104F000055706C6F6164696E672E2E2E0000000074
:104F1000A0C00720A4C00720AB39000041542B4398
:104F20004D47463D310D0A0041542B43534D503DF2
:104F300031372C3136372C302C300D0A0000000070
:104F400041542B43534D503D31372C3136372C30A3
:104F50002C300D0041542B43504D533D22534D22D4
:104F60002C22534D222C22534D220D0A000000000A
:104F700041542B435343533D2247534D220D0A00C6
:104F8000FCC0072072CE0720434D54493A00000070
:104F900048C0072041542B434D47533D22257322DF
:104FA0000D000000C0D4010041544425733B0D00A6
:104FB0004154480D0000000041542B435343413FEE
:104FC0000D0000002B435343413A000096CD0720CB
:104FD00063757272656E742053494D206E756D62F3
:104FE0006572200D0A0000002DE9F05F04460D46B1
:104FF00016461F46DDE90CABDDE90A89FD48C470A1
:1050000005714671877180F8078080F8089080F8F4
:1050100009A080F80AB0F7490E98C8720F98087373
:1050200010984873FF2F08D0B8F1FF0F05D0B9F1E1
:10503000FF0F02D0BAF1FF0F03D10420ED498870B1
:1050400012E00820EB49887001213846FBF732FE58
:1050500001214046FBF72EFE01214846FBF72AFEC0
:1050600001215046FBF726FE01212046FBF722FED8
:1050700001212846FBF71EFE01213046FBF71AFEF0
:1050800001215846FBF716FE01210E98FBF712FE90
:1050900001210F98FBF70EFE01211098FBF70AFE85
:1050A000BDE8F09F10B5D349C8780021FBF718FE82
:1050B000D04908790021FBF713FECE494879012138
:1050C000FBF70EFE0A20FBF7A1F8CA494879002138
:1050D000FBF706FE10BD10B50446C649887AC4F336
:1050E0000011FBF7FDFDC349C87AC4F34011FBF77B
:1050F000F7FDC049087BC4F38011FBF7F1FDBD4902
:10510000487BE109FBF7ECFD10BD10B5044604F047
:105110000101B84A9079FBF7E3FDB649C879C4F3B9
:105120004001FBF7DDFDB349087AC4F38001FBF7CA
:10513000D7FDB049487AC4F3C001FBF7D1FD10BDDB
:1051400010B5AC480079FF2840D0AA49487B00211F
:10515000FBF7B0FDA749C8780021FBF7C1FDA549C1
:1051600008790121FBF7BCFD00BFA2494879002165
:10517000FBF7B6FD0A20FBF749F89E494879012163
:10518000FBF7AEFD0A20FBF741F89A49487BFBF795
:10519000CCFD04469748807804280FD1954948797A
:1051A0000021FBF79DFD0A20FBF730F89149487973
:1051B0000121FBF795FD0A20FBF728F8002CD4D13C
:1051C0008C49487B0121FBF775FD02E00120FBF7CC
:1051D0002AF810BD10B50446FFF7B2FF8548807865
:1051E000082803D12046FFF790FF06E02046FFF78E
:1051F00072FFFFF757FF2007040E2046FFF76BFFF3
:10520000FFF750FF10BD10B504467A480078A04261
:1052100008DD002078490870784804707849085DF6
:10522000FFF7D8FF10BD10B50120FFF7D3FF002016
:10523000FFF7E9FF10BD10B53020FFF74CFFFFF777
:1052400031FF6420FAF7EFFF3020FFF744FFFFF74C
:1052500029FFC820FAF7DAFF3020FFF73CFFFFF7FD
:1052600021FFC820FAF7D2FF2020FFF734FFFFF715
:1052700019FFC820FAF7CAFF10BD70B504460D46E5
:105280005C4845700470022C08DD05F00F0090307A
:105290005B49887005F00F00D030C8706420FAF7C1
:1052A000C2FF54488078082803D13820FFF792FFC6
:1052B00008E050488078042804D1FFF7BCFF28207C
:1052C000FFF788FF0C20FFF785FFFFF7ACFF70BDED
:1052D00010B54A480078401C4849087000204649EB
:1052E00008704448007845490978884202DC00206B
:1052F000424908704249414A1278885CFFF76AFFC8
:1053000010BD70B504460D463A480078A0420DDD48
:1053100038484078A84209DD37480570374804709E
:105320003749095D2944C8B2FFF754FF70BD10B575
:105330003049C8780121FBF7D3FC2E4908790021B8
:10534000FBF7CEFC2B4948790121FBF7C9FC0A2069
:10535000FAF75CFF274948790021FBF7C1FC10BD33
:1053600010B50446FFF7ECFE22488078082803D1E8
:105370002046FFF7CAFE06E02046FFF7ACFEFFF727
:10538000D6FF2007040E2046FFF7A5FEFFF7CFFF4C
:1053900010BD10B50446174840781749097888426F
:1053A00001DD0A2C01D1FFF793FF0A2C07D020461C
:1053B000FFF7D6FF10480078401C0F49087010BD59
:1053C00010B5044603E014F8010BFFF7E2FF207864
:1053D0000028F8D110BD2DE9F04104460D460548DE
:1053E0000078A04200DC00240C20FFF7F3FE00262A
:1053F0002AE00000C4CD072012C1072011C10720F8
:105400000DC107202046FFF7FEFE002705E0F11939
:10541000685CFFF7BEFF781CC7B2E2484078B8422C
:1054200003DDF019285C0028F1D104E02020FFF70B
:10543000B0FF781CC7B2DB484078B842F6DCC82021
:10544000FAF7F1FE701CC6B2A85D0028DAD10C2074
:10545000FFF7C0FEBDE8F081FEB504460D461646D6
:105460000027022C13D10FE0711E01208840284232
:1054700001D0012000E00020C7B207F13000C0B227
:10548000FFF787FF701EC6B2002EEDD13CE05DB97C
:10549000002704E03020FFF77CFF781CC7B2B7423A
:1054A00032DA0A2FF6D32FE0002714E04DB1B5FB16
:1054B000F4F004FB1050C0B20DF80700B5FBF4F592
:1054C00007E0FF2E01D00A2E00D906E000200DF8DB
:1054D0000700781CC7B2B742E8DB00BF12E0791EB4
:1054E0001DF80110092904DD791E1DF8011037315E
:1054F00003E0791E1DF801103031C8B2FFF749FFF3
:10550000781EC7B2002FEAD1FEBD70B50446204612
:105510000DF096F90546FF2229460A20FFF79CFF69
:105520002E20FFF736FF28460DF0CFF9064621461C
:105530000DF0E0FA04469C4920460DF0FBF90646C2
:105540000DF07EF90546FF2229460A20FFF784FF69
:1055500070BD0FB42DE9F04F85B00FA804900E9CDC
:10556000F8E094F800A0BAF1250F7DD1641C94F8FE
:1055700000A0BAF1300F17DBBAF1390F14DC4FF08D
:10558000000B0AE0AAF130000BEB8B0100EB4100AD
:1055900000F0FF0B641C94F800A0BAF1300F05DB9B
:1055A000BAF1390FEEDD01E04FF0FF0BBAF1580F01
:1055B0007ED017DCBAF1440F47D009DCBAF1250FD1
:1055C00068D0BAF1420F70D0BAF1430F2BD121E06D
:1055D000BAF1460F6AD0BAF1530F68D0BAF1550F3D
:1055E000F4D14CE0BAF1660F7BD009DCBAF1620F5E
:1055F00068D0BAF1630F0ED0BAF1640FE6D113E0B0
:10560000BAF1730F6ED0BAF1750F2ED0BAF1780FD0
:10561000DCD140E000BF049802C801F0FF0A04900A
:105620005046FFF7B6FE90E0049802C80DB2049011
:10563000002D04DA684205B22D20FFF7AAFE5A4673
:1056400029460A20FFF708FF7FE0049840C804902D
:10565000002E03DA76422D20FFF79BFE5A46314694
:105660000A20FFF7F9FE70E070E0049802C88FB2DC
:1056700004905A4639460A20FFF7EEFE65E004988A
:1056800050F8048B04905A4641460A20FFF7E4FE86
:105690005BE00DE055E0049802C88FB204905A46D2
:1056A00039461020FFF7D8FE4FE01CE02AE03FE02B
:1056B000049850F8048B04905A4641461020FFF796
:1056C000CBFE42E0049802C88FB20490BBF1FF0FFA
:1056D00001D14FF0100B5A4639460220FFF7BCFEAD
:1056E00033E010E025E0049850F8048B0490BBF1FF
:1056F000FF0F01D14FF0100B5A4641460220FFF731
:10570000ABFE22E000BF0498C01D20F00700014658
:10571000049000684968CDE90201049808300490BB
:10572000DDE902010BF0CAFD0190FFF7EEFE0CE08F
:1057300000BF049850F8049B04904846FFF740FED1
:1057400003E02520FFF725FE00BF02E05046FFF7EB
:1057500020FE641C207800287FF403AF05B0BDE86C
:10576000F00F5DF814FB70B504460D4604F0070415
:10577000402141EAC400FFF72DFD002603E0A85DAB
:10578000FFF7EEFD761C082EF9DB70BD70B5044600
:105790000D46164629462046FFF7B3FD3046FFF773
:1057A000DFFD70BDC4CD07200000C84210B5202821
:1057B00001D2034601E0A0F120031A46202810D2AE
:1057C000444B1C68032393409C43434BC3F8A841BC
:1057D000404B1C6801FA02F31C433F4BC3F8A8413D
:1057E00011E03C4B1B1D1C68032393409C433A4B28
:1057F000C3F8AC41374B1B1D1B6801FA02F423436D
:10580000354CC4F8AC3110BD0146202903D20A46FC
:10581000304B186804E0A1F120022E4B1B1D1868C4
:1058200020FA02F303F00300704770B504462B48DA
:1058300005682046FFF7E8FF064636B1012E06D080
:10584000022E06D0032E08D105E0042605E001262D
:1058500003E0022601E0082600BF00BFB5FBF6F515
:10586000284670BD012909D11B4AC43213681C4A5D
:1058700002401343184AC2F8C43009E041B9164A3D
:10588000C4321368164A82431340134AC2F8C43024
:10589000704700201049C031086030BF70470420B5
:1058A0001049086008200C49C1F8C00030BF70479B
:1058B00004200C49086009200749C1F8C00030BF26
:1058C000704704200749086003200349C1F8C0005D
:1058D00030BF7047A8C10F4000C00F4000C0072074
:1058E000DEF7EFEF10ED00E02DE9F04104460D4644
:1058F0000026002724B1012C12D0022C5FD14EE0EB
:105900005E4EB010B6FBF0F0A90800FB01F7FF2FC8
:1059100005D300BFB00547600120BDE8F0814FE02E
:105920005748006886085748B6FBF0F0A90800FB06
:1059300001F7FF2F09D300BF00210846FFF736FF0C
:105940004FF0804047600120E7E74D480068460877
:105950004C48B6FBF0F0A90800FB01F7FF2F09D374
:1059600000BF02210020FFF721FF4FF08040476079
:105970000120D2E7424806684248B6FBF0F0A90889
:1059800000FB01F7FF2F09D300BF01210020FFF723
:105990000DFF4FF0804047600120BEE710E04FF45C
:1059A00000463848B6FBF0F0A90800FB01F7FF2FCE
:1059B00004D300BFF00347600120AEE700E000BF62
:1059C00000BF0020A9E770B504460D460021084637
:1059D000FFF7ECFE4FF08040006920F003004FF02D
:1059E000804108610846006920430861012D04D107
:1059F0000846007840F00200087070BD72B6AA2018
:105A0000410708725520087262B6704770B50546A6
:105A10004FF08040046904F0030429462046FFF754
:105A200063FF4FF08040007840F001004FF080416C
:105A30000870FFF7E3FF70BD4FF080400078C0F3BF
:105A4000800070474FF08040007820F004004FF055
:105A500080410870704770B505464FF0804004697A
:105A600004F0030429462046FFF73EFFFFF7C6FF78
:105A700070BD4FF08040C0687047000000093D00D5
:105A800000C0072040420F00F94909780143F84A55
:105A9000117070470146F6480078084201D0012095
:105AA00000E00020C0B2704700B50120FFF7F2FF10
:105AB00010B10120FFF7E8FF0120EE49086000BDAA
:105AC00010B50020EB49086001214802FFF7CAFE2B
:105AD000E7485C30007810F0100F07D0E4485C30E5
